:020000040800F2
:10000000D80800207D0200084B2A0008F5240008CB
:10001000492A00087D0E0008A52D000800000000F8
:100020000000000000000000000000004F2A00084F
:10003000150F0008000000004D2A0008512A000892
:10004000970200089702000897020008970200082C
:10005000970200089702000897020008970200081C
:10006000970200089702000897020008970200080C
:1000700097020008970200089702000897020008FC
:1000800097020008970200089702000897020008EC
:1000900097020008970200089702000897020008DC
:1000A00097020008970200089702000897020008CC
:1000B00097020008970200089702000897020008BC
:1000C00097020008970200089702000897020008AC
:1000D00097020008992D000897020008970200086F
:1000E000970200089702000897020008970200088C
:1000F000970200089702000897020008970200087C
:10010000970200089702000897020008970200086B
:10011000970200089702000897020008970200085B
:10012000970200089702000897020008970200084B
:10013000970200080000000000000000970200087D
:10014000970200089702000897020008970200082B
:10015000810E0008970200088D0E00089702000823
:10016000970200089702000897020008970200080B
:10017000970200089702000897020008000000009C
:1001800000000000970200080000000000000000CE
:10019000970200080000000000000000970200081D
:1001A00000000000000000000000000097020008AE
:1001B00097020008970200089702000897020008BB
:1001C0009702000800F002F800F049F80AA090E851
:1001D000000C82448344AAF10107DA4501D100F002
:1001E0003EF8AFF2090EBAE80F0013F0010F18BF86
:1001F000FB1A43F001031847C02D0000E02D00005A
:10020000103A24BF78C878C1FAD8520724BF30C842
:1002100030C144BF04680C60704700000023002414
:1002200000250026103A28BF78C1FBD8520728BF06
:1002300030C148BF0B607047642900F0F780002090
:1002400070471FB502F09CFE9DE8030000F0E8FB3C
:1002500000F0DAF91FBD10B500F03FFA10BD00F054
:10026000A2FA1146FFF7EDFF02F0BAFD00F0A6FB7F
:1002700003B4FFF7F0FF03BC00F064FD09488047BA
:1002800009480047FEE7FEE7FEE7FEE7FEE7FEE778
:10029000FEE7FEE7FEE7FEE704480549054A064B90
:1002A00070470000E92A0008C5010008D8020020B4
:1002B000D8080020D8040020D804002053EA020CFB
:1002C00000F069802DE9F04B4FF00006002B1FBFB6
:1002D000B3FA83F503FA05F424FA05F65E4012BF7B
:1002E0001643B2FA82F502FA05F4C5F120051EBFE5
:1002F00022FA05FC44EA0C04203556EA044C4FEA85
:10030000144418BF641C4FF000084FF000099042DD
:1003100071EB030C39D3002919BFB1FA81F701FA47
:1003200007F6B0FA80F700FA07F6C7F120071EBFFC
:1003300020FA07FC46EA0C062037B6FBF4FCA7EBD4
:100340000507103F07F01F0BCBF120060CFA0BFB43
:100350002CFA06F644BFB3460026202FA4BF5E4603
:100360004FF0000B5BEA060C08BF4FF0010B19EBD6
:100370000B09ABFB027C48EB0608C01B06FB02CC5A
:100380000BFB03CC71EB0C01C1E70B460246414667
:100390004846BDE8F08B13B54FF000004FF0000168
:1003A000AFF30080BDE81C40704700000FB4044963
:1003B00010B503AA029800F0F9F810BC5DF814FB20
:1003C000CC0100202DE9F0410E46044600202062B9
:1003D0002046E168884730B3252805D0D4E90121BB
:1003E0009047206A401CF2E7E168204600278847D2
:1003F000050018D0A5F14100192802D820354FF486
:1004000000673246294620462760FFF715FF40B1B6
:10041000012804D0F61D26F007060836D8E7361D59
:10042000D6E72846DAE7206ABDE8F0812DE9F041F9
:100430000646002410687529314616A510D0AFF382
:100440000080002802DA404213A507E031688A07DD
:1004500001D512A502E0490704D511A5012401E048
:10046000AFF3008000210A2206F1240709E0B0FB67
:10047000F2FCB0FBF2F302FB1C003030785418465B
:10048000491C0028F3D123462A463046BDE8F041F6
:1004900000F032B8000000002D0000002B0000002A
:1004A000200000004FF0000200B513469446964627
:1004B000203922BFA0E80C50A0E80C50B1F1200177
:1004C000BFF4F7AF090728BFA0E80C5048BF0CC025
:1004D0005DF804EB890028BF40F8042B08BF704783
:1004E00048BF20F8022B11F0804F18BF00F8012BF5
:1004F00070477047704770472DE9F0470D469946A1
:100500009246044600F124080168880604D5E06993
:1005100021F01001216000E00120A84201DD471B0D
:1005200000E00027A1697A1902EB0900081AA0610E
:100530002078C00602D42046AFF30080002608E0F1
:10054000D4E901211AF806009047206A401C761C65
:1005500020624E45F4DB2078C0060AD52046AFF372
:10056000008006E0D4E9012130209047206A401C39
:100570002062381EA7F10107F4DC07E0D4E901216D
:1005800018F805009047206A401C2062281EA5F13B
:100590000105F3DC2046AFF300802078000602D589
:1005A0000220BDE8F0870120FBE70000074B70B593
:1005B0000D467B4400F011F80446284600F020F870
:1005C00010B14FF0FF3070BD204670BD1328000001
:1005D00001694A1C02610878704700B58FB0CDE907
:1005E00001310021059105497944CDE903101146F7
:1005F0006846FFF7E7FE0FB000BD0000E5FFFFFF14
:10060000007B00F08000704710B542485421FFF78E
:1006100049FF41485421FFF745FF40485421FFF767
:1006200041FF3F493B483C4A3F4B08603D490A6017
:100630003A491960531C0365481C10650120086580
:100640003B48344A39A1784400F01CF920B93848B5
:1006500078440A3800F0BBF937482F4A35A178446E
:1006600000F010F920B9344878440A3800F0AFF9A6
:1006700032482A4A2FA1784400F004F920B92F48C3
:1006800078440A3800F0A3F940232248DC00002116
:10069000224600F0D4F820B125487844543800F0C0
:1006A00096F91D4822464023002100F0C8F820B1E9
:1006B00021487844543800F08AF91848224610231B
:1006C000002100F0BCF8002806D01C487844BDE8A2
:1006D0001040563800F07BB910BD104870B5006D61
:1006E00020F001040B4800F043F90B4800F040F9FA
:1006F0000A4800F03DF909E0206D20F00105204690
:1007000000F036F9204600F073F82C46002CF3D1A7
:1007100070BD000078010020CC01002020020020E4
:1007200010000020140000201800002072000000BB
:1007300060290000770000004C29000038290000E3
:100740000EB5CDE9000100F0DDFA02906946012006
:10075000ABBE0EBD08B5694600900220ABBE08BD19
:100760001FB58DE8070069460520ABBE04B010BD7B
:100770001FB58DE80F0069460620ABBEF6E708B549
:10078000694600900920ABBE08BD1CB5CDE900014B
:1007900069460A20ABBE1CBD704708B5694600908B
:1007A0000C20ABBE08BD754600F018F9AE4605003A
:1007B0006946534620F00700854618B020B5FFF77C
:1007C0006BFDBDE820404FF000064FF000074FF0F2
:1007D00000084FF0000B21F00701AC46ACE8C0095F
:1007E000ACE8C009ACE8C009ACE8C0098D46704768
:1007F00070B50446051F00F0F7F80068002C14BF20
:10080000446870BD002C18BFAC423CBF20466468F1
:10081000F8D301680A18AA4218BF456003D12A68B4
:1008200005461144016028684119A1421CBF6C6053
:1008300070BD6168696021680844286070BD70B54A
:10084000C468A50713D0650211D4B2F5807F09D022
:10085000B2F5007F06D0B2F5806F08D1012300F118
:10086000240106E05D1E6FF07F46B54201D30120F2
:1008700070BD0161C361416024F470611143C160C6
:10088000002070BD2DE9F0410C4607461646104683
:1008900000F06EF82078611C61280AD0722802D01E
:1008A00077283CD102E00125002405E0022504243C
:1008B00002E0082448F2020511F8010B2B2806D0AB
:1008C000622809D011F8010C74280AD00BE045F019
:1008D000030544F00204EFE745F0040544F0010489
:1008E000EAE744F0100438462146FFF729FF411C8F
:1008F00015D00021316171604FF40071F560F16134
:100900007061200704D530460222002100F0E6F88D
:10091000306D40F0010030653046BDE8F0810020C8
:10092000FBE72DE9F0410D460646104C206DC1074E
:1009300004D0410804D020F00104F7E722460EE07D
:10094000542000F09CF807000ED0206D47F0010104
:100950000843542120653846FFF7A4FD3A4629464E
:100960003046BDE8F0418DE70020D6E77801002051
:100970002DE9F04704464FF000094FF0FF37C568F6
:10098000D4E90486A80707D0204600F057F930467E
:10099000FFF7E0FE002802DA3846BDE8F0872805B8
:1009A00002D54046FFF724FF4C212046FFF77AFD91
:1009B000206D20F0010020654846EEE710B50446A2
:1009C000AFF300802046BDE81040FFF751BC10B5E2
:1009D00000F07EF9BDE8104000F074B9004870479F
:1009E0007402002070470000004870477C0200201D
:1009F000704770477047704738B504460A46002074
:100A00006946AFF30080002808BF38BD0246009950
:100A1000204600F0A4F9012038BD012000F0F3B910
:100A2000F8B5AFF30080054600200C46102000BF4B
:100A30000646A819A0420DD9324669460020AFF3F8
:100A40000080070008BF00F0DEF90098A04218BF40
:100A50000546C419FFF7C8FF05600746F01D20F0E2
:100A600007004619284600F073F9B44208BFF8BDE4
:100A7000A21B31463868BDE8F84000F070B970B587
:100A80000646FFF7B1FF056806F10B0020F00704EA
:100A9000B4429CBF002070BD2B466A68BAB1106892
:100AA000A04210D304F1080188423CBF506858604E
:100AB00007D35168101941601168091B0160586023
:100AC0001460101D70BD13465268002AE7D12146FC
:100AD0002846FFF791FF0028DED170BD2DE9F041D7
:100AE000044616460D464769007B80072ED03846DF
:100AF000FFF745FE50BB3EB3012E02D0022E25D19A
:100B000004E0204600F045F905441DE03846FFF7B3
:100B100044FEE168002841F01001E16005DA20465A
:100B200000F058F80120BDE8F081C9030BD56268D8
:100B3000E16A914200D81146A26911442269891ADA
:100B4000814200DD08460544002D01DA0220EAE773
:100B5000E16A6068E268814206D29103E06203D5EF
:100B600022F4003141F01002A6690027AE4213DCE6
:100B7000E16A814201D90B4600E0034603EB060C13
:100B80002369ACEB030CAC4506DD814201D98C46F0
:100B900000E084469C4505D1A760276042F0200014
:100BA000A5620DE0AD1BE669AE1B8142A66000D9CF
:100BB0000846C01A281A20605819606022F02000E8
:100BC00003490840E060002084F84870ABE700006B
:100BD000BFCFD7FFC16821F4001141F08001C1608F
:100BE00000218160016070472DE9F047814614467D
:100BF0000E464FF0FF383248D5685769054209D094
:100C00003846A169FFF7C1FD002811DB2C48C0431D
:100C10000540E5602B46324649463846FFF7A0FDC1
:100C2000A16920F00042B21A11440028A16103D04A
:100C30002046FFF7CFFF4046BDE8F08770B5044679
:100C40000569C06A6168884200D80846E16821F4F5
:100C50002011E160C90312D5A84208D02246411BE9
:100C60002846FFF7C1FF10B14FF0FF3070BD0020E4
:100C7000E562C4E90150E06820F48030E0600020C3
:100C800070BD10B50446C06820F02000E060A16A85
:100C9000A06988420DD02046FFF7D0FFE06820F41D
:100CA000405040F01000E060A06AA0612069E0625E
:100CB000606044F24001E0688843E06010BD0000DD
:100CC00010000200002801D000F03CB8704700007E
:100CD00010B5014602A000F07DF8012010BD000013
:100CE00053494752545245443A20526564697265EB
:100CF00063743A2063616E2774206F70656E3A20CA
:100D00000000000010B5431C02E010F8011B71B197
:100D10008107FAD14FF0013202C88C1A8C4314EAD1
:100D2000C211F9D0C01A0A0603D0C01E10BDC01AE5
:100D300010BD0A0401D0801E10BD0902FCD0401E67
:100D400010BD000001491820ABBEFEE726000200DE
:100D500000210160C0E90110704710207047034670
:100D600040688C46002818BF88423CBF0346406854
:100D7000F8D318681844884207D00CF1030020F01B
:100D80000700001D411A521A0146081D0A60FFF7AC
:100D90002FBD10B50146C268900703D0900607D555
:100DA000886A0AE000F03EF801210160881E10BD4B
:100DB0008B69486818440B69C01A91F848301BB118
:100DC00091F84910401A10BD1103FCD50028FADD36
:100DD000401E10BD70B505460C460A2000E06D1C93
:100DE00000F018F835B128780028F8D102E0641C2A
:100DF00000F010F814B120780028F8D1BDE8704058
:100E00000A2000F007B810B500F010F8BDE8104057
:100E1000FFF758BF08B569468DF800000320ABBE48
:100E200008BD0000004870477402002010B501287A
:100E300005D0002103A0FFF7CDFF012010BD09A1BF
:100E4000F8E7000053494752544D454D3A204F753D
:100E500074206F662068656170206D656D6F7279B2
:100E6000000000003A2048656170206D656D6F726A
:100E70007920636F7272757074656400FEE700001C
:100E8000014800F0A5B80000B8000020014800F0BB
:100E90009FB800001801002001681823CAB2103A58
:100EA000B2FBF3F2054B6FF30901032A9B5CC365A8
:100EB00000D9091D81650846704700008A2F000887
:100EC00010B5014600208B698A6A4FF0C07453B197
:100ED000B3F5005F15D072B1012A0CD0022A0AD0F6
:100EE000032A09D104E01AB1012A06D0022A03D14B
:100EF000C96AC90100D5012010BDC96AA142FAD052
:100F000010BD002AF7D0012AF2D0022AF3D0032A1A
:100F1000F3D010BD704772B6FEE72DE9F0410446EC
:100F2000876D00F09DFA064694F8350000250228EA
:100F300006D08020606584F834500120BDE8F0813F
:100F40002068016821F0160101602068416921F0E4
:100F500080014161206C08B9A06C20B12068016853
:100F600021F0080101602068016821F001010160A1
:100F70000CE000F075FA801B052807D92020606579
:100F8000032084F8350084F83450D7E720680068DF
:100F9000C007EED194F85C103F208840B860012073
:100FA00084F8350084F834500020C7E790F83510F5
:100FB000022903D08021416501207047052180F876
:100FC00035100068016821F00101016000207047C0
:100FD0002DE9F84304464FF00009CDF8009063482E
:100FE0004FF41651A56D0068B0FBF1F72E6894F828
:100FF0005C10082000FA01F131420FD021680A6824
:1010000052070BD50A6822F004020A6094F85C10BB
:101010008840A860606D40F00100606594F85C1045
:101020004FF0010808FA01F0304208D02168496900
:10103000090604D5A860606D40F00200606594F870
:101040005C1004208840304208D021680968890774
:1010500004D5A860606D40F00400606594F85C10F1
:1010600010208840304218D021680968090714D53B
:10107000A86020680168490304D50068000308D50A
:10108000A16C07E00168C90503D4016821F00801DB
:101090000160216C09B12046884794F85C1020203B
:1010A0008840304231D021680968C9062DD5A86032
:1010B00094F8350005282068016806D0490347D513
:1010C000006800031DD4616C1CE021F01601016072
:1010D0002068416921F080014161206C08B9A06C51
:1010E00020B12068016821F00801016094F85C10CB
:1010F0003F208840A86084F8358084F83490216DC2
:101100001FE0E16B09B120468847606D00282BD0B5
:10111000606DC00714D0052084F835002068016890
:1011200021F0010101600098401C0090B84203D8F2
:1011300020680068C007F6D184F8358084F83490C0
:10114000E16C002910D001B02046BDE8F04308470B
:101150000168C905D5D4016821F01001016084F847
:10116000358084F83490CCE7BDE8F8830C0000208B
:101170002DE9F041044600F073F906465CB1022007
:1011800084F83500002584F834502068016821F087
:10119000010101600DE00120BDE8F08100F060F97F
:1011A000801B052805D920206065032084F83500C0
:1011B000F2E720680068C007F0D122681168204873
:1011C0000140D4E901031843D4E9033633431843FB
:1011D00063691843A3691843E3691843236A1843F2
:1011E0000843616A042903D1D4E90B131943084366
:1011F000106020684069666A20F0070130460E439F
:10120000012704280CD1A06A0643E06A40B12046B9
:10121000FFF756FE20B14020606584F83570BAE7CC
:10122000206846612046FFF737FE94F85C203F2196
:1012300091408160656584F835700020ACE700005E
:101240003F8010F070B5044600F00AF90546601CB6
:1012500002D004480078044400F002F9401BA04288
:10126000FAD370BD000000202DE9F84FDFF8ACA1E3
:101270000022012403254FF00F090AF1040BAAF103
:10128000040E00BF0B6804FA02F63340B3426ED17D
:101290000F7907F00307012F01D0022F16D18768BD
:1012A0004FEA420805FA08FC27EA0C07D1F80CC0FF
:1012B0000CFA08FC4CEA070CC0F808C04768B743B2
:1012C0000E79C6F3001696403E4346600E79F6430B
:1012D000B6070AD0C6684FEA420C05FA0CF7BE43BF
:1012E0008F6807FA0CF73743C7600E7906F00306DC
:1012F000022E10D1D60800EB8608D8F820605707D8
:101300004FEAD76C09FA0CF7BE430F6907FA0CF7DE
:101310003743C8F8207006684FEA420C05FA0CF70C
:10132000BE430F7907F0030707FA0CF7374307604E
:101330004E6816F4403F6BD0394E376847F480470B
:101340003760366822F0030706F480460096354E73
:1013500007EB060CDCF8086897074FEA177809FADC
:1013600008F7BE43304FB84202D100271FE04FE0DC
:101370002E4FB84201D1012719E02D4FB84201D1BB
:10138000022714E02B4FB84201D103270FE02A4F68
:10139000B84201D104270AE0284FB84201D10527FD
:1013A00005E0274FB84201D1062700E0072707FADA
:1013B00008F73743CCF80878DAF800605746D1F8D8
:1013C00004C09E435FEACC2C00D51E433E60DBF890
:1013D00000605F46D1F804C09E435FEA8C2C00D5C4
:1013E0001E433E60DEF800607746D1F804C09E439D
:1013F0005FEA8C3C00D51E433E60084F083F3E68C4
:10140000D1F804C09E435FEACC3C00D51E433E6049
:10141000521C102AFFF436AFBDE8F88F083C01409B
:101420004438024000300140000002400004024005
:1014300000080240000C024000100240001402406C
:1014400000180240426921EA02030A4043EA0241CD
:10145000816170470AB1816170470904FBE70000B0
:1014600001488068704700000000002070B504004B
:1014700025D094F83D00002520B984F83C50204642
:1014800000F052FA242084F83D002068016821F021
:10149000010101602068016841F400410160206899
:1014A000016821F40041016000F0A6FB4D4A61682B
:1014B000914201D84C4900E04C49884201D20120B8
:1014C00070BD4B492368B0FBF1F15E6826F03F0622
:1014D0000E435E606368934206D94FF49673594396
:1014E0004FF47A73B1FBF3F12368491C1E6A26F0AE
:1014F0003F06314319626168914210D84900401E8D
:10150000B0FBF1F2521CC2F30B02042A01D20420F8
:1015100022E0B0FBF1F0401CC0F30B001CE0A2681D
:10152000F2B301EBC10303EB0116431EB3FBF6F369
:101530005B1C43F480431B0549D092B301EBC1020D
:1015400002EB0111401EB0FBF1F0401CC0F30B0098
:1015500040F4804040F400402168CA694CF6FF73B3
:101560009A431043C861D4E9071001432068026818
:1015700022F0C00211430160D4E903010143206855
:10158000826848F2FF339A4311438160D4E9050130
:1015900008432168CA6822F0FF021043C86001E0D6
:1015A0000EE016E02068016841F001010160256449
:1015B000202084F83D00256384F83E50002070BD53
:1015C00001EB4106431EB3FBF6F35B1CB3E70120BE
:1015D000C2E701EB4101401EB0FBF1F0401CC0F33B
:1015E0000B00B7E7A086010080841E0000093D00C3
:1015F00040420F002DE9FF4F83B09A46DDE9118785
:1016000093460446DDF84090FFF72AFF054694F81C
:101610003D00202870D119230122744920460095ED
:1016200001F07EF80028F5D194F83C00012863D041
:10163000012084F83C0020680168C90703D10168D3
:1016400041F0010101602068016821F4006101603E
:10165000222084F83D00402084F83E0000262664C5
:10166000C4F82490A4F82A80608D20856048E06248
:10167000CDE9007553465A462046049900F052FFC2
:10168000002879D1208DD0B1012821D002282068EE
:1016900024D0416980690090208D032866D80128F4
:1016A0002BD0544902283B464FF00002009557D0FA
:1016B0008846204601F034F800285DD13AE02068E1
:1016C000416981690091016841F4007101607DE028
:1016D0002068016821F480610160F0E7016821F46D
:1016E000806101602068016841F400610160206848
:1016F00041698069009069E075E02A4639462046D4
:1017000001F0B4F888BB54E02068016841F400712E
:10171000016020680069616A0870606A401C60624C
:10172000218D491E2185618D491E618521680969C8
:10173000017042E02068016821F480610160206846
:101740000069616A0870606A401C6062208D401EFA
:101750002085608D401E60853B46002241460095F5
:10176000204600F0DDFF00B9CEE705E02A46394605
:10177000204601F07BF818B1012007B0BDE8F08FDA
:1017800020680069616A0870606A401C6062208D90
:10179000401E81B22185608D401E608520684269AF
:1017A000D243520712D4032903D1016821F4806186
:1017B000016020680069616A0870606A401C6062AC
:1017C000208D401E2085608D401E6085208D002864
:1017D0007FF462AF202084F83D0084F83E6084F8F6
:1017E0003C600020C9E70220C7E7000002001000AB
:1017F0000000FFFF040001002DE9FF4F83B09A466F
:10180000DDE9119793460446DDF84080FFF728FE96
:10181000054694F83D0020287FD119230122404934
:101820002046009500F07CFF002876D194F83C001B
:10183000012872D0012084F83C0020680168C907A3
:1018400003D1016841F0010101602068016821F4C1
:1018500000610160212084F83D00402084F83E00B2
:1018600000262664C4F82480A4F82A90608D208580
:101870002C48E062CDE9007553465A46204604994B
:1018800000F0CEFE70B930E02A463946204601F01D
:1018900025F858B1206C042804D12068016841F46F
:1018A00000710160012007B0BDE8F08F606A216817
:1018B00000780861606A401C6062218D491E89B20F
:1018C0002185628D521E628522685369DB435B0766
:1018D0000BD469B100781061606A401C6062208D91
:1018E000401E2085608D401E6085208D0028CBD154
:1018F0002A463946204600F0E7FE0028CAD154F8AF
:101900003D0B016841F400710160202004F81E09BC
:10191000E67766770020C6E7FFE70220C3E700000E
:10192000020010000000FFFF10B586B0044614212D
:101930006846FEF7B7FD13492068884220D1124857
:101940000021026842F002020260006800F002001A
:101950000590C02000901220CDE9010103200390E2
:101960000420049069460948FFF77EFC06481030C1
:10197000016841F400110160006800F40010059056
:1019800006B010BD00540040303802400004024050
:10199000024881680278114481607047000000208D
:1019A0000B4810B5016841F400710160016841F411
:1019B00080610160016841F480710160032000F0E2
:1019C0006FF80F2000F006F800F024F8002010BD9A
:1019D000003C024070B50D4D04464FF47A712878F2
:1019E000B1FBF0F00A490968B1FBF0F000F03CFBF4
:1019F00048B9102C07D200222146501E00F030F8C2
:101A000000206C6070BD012070BD0000000000204F
:101A10000C0000200A4808B5016841F480410160CB
:101A2000006800F4804000900548001F016841F004
:101A300080510160006800F08050009008BD0000F7
:101A400044380240002809DB00F01F0201219140C8
:101A50004009800000F1E020C0F80011704700004C
:101A6000F0B40E4B1B680C46C3F30223C3F1070509
:101A7000042D00D90425191D072901D2002300E0F7
:101A8000DB1E012606FA05F1491E214099409E40C1
:101A9000761E16403143F0BC01F085B90CED00E034
:101AA000064900F0070208684FF6FF03184040EAB5
:101AB0000220034A10430860704700000CED00E06C
:101AC0000000FA052DE9F0470E46050065D0DFF865
:101AD0001481D8F80000F7B200F00F00B04207D22E
:101AE00088F80070D8F8000000F00F00B04254D120
:101AF00028683D4C810712D5400703D5206840F483
:101B0000E05020602878000703D5206840F460404A
:101B100020602068A96820F0F00008432060287841
:101B2000C0072DD0304968680839012812D0022832
:101B300013D0032811D00968890700292DDA2168FC
:101B400021F0030101432160FFF78AFC814641F245
:101B5000883A0EE009688903EFE709688901ECE734
:101B6000FFF77EFCA0EB0901514502D90320BDE837
:101B7000F0872068696800F00C00B0EB810FEFD1AE
:101B8000D8F80010404601F00F01B14207D90770A4
:101B9000006800F00F00B04201D00120E7E728788C
:101BA000400705D52068E96820F4E050084320602C
:101BB0002878000706D52068296920F4604040EAAB
:101BC000C100206000F038F82168084AC1F3031111
:101BD000515CC8400649086006480068FFF7FAFEF5
:101BE0000020C4E7003C024008380240922F000861
:101BF0000C00002004000020044805490068096822
:101C0000044AC1F38221515CC84070470C00002097
:101C100008380240A22F00080448054900680968F6
:101C2000044AC1F34231515CC84070470C000020A7
:101C300008380240A22F0008224810B5006810F0B2
:101C40000C02214815D02149042A11D01D4C241F13
:101C5000082A0FD00C2A0CD12268236802F03F0218
:101C60005B0221D52068C0F38810A0FB010120E0B1
:101C7000084610BD2268236802F03F025B0205D5CA
:101C80002068C0F38810A0FB010104E02168C1F3C3
:101C90008811A1FB00010023FEF710FB2168C1F3AE
:101CA0000141491C49000AE02168C1F38811A1FBE8
:101CB00000010023FEF702FB2168C1F30271B0FBB3
:101CC000F1F010BD083802400024F40040787D0196
:101CD0002DE9F84F04007DD0DFF878B32078ABF120
:101CE0000407C007A7F1040550D0DBF800105846E0
:101CF000C1F3810101290FD00168C1F381010229DB
:101D000002D13968490207D40068C0F38100032872
:101D100009D13868400206D52868800336D5606846
:101D20000028D8D032E06068B0F5803F10D0B0F520
:101D3000A02F286810D020F480302860286820F474
:101D4000802028606068A0B1FFF78AFB06460CE09F
:101D5000286840F48030F4E740F480202860F7E7FA
:101D6000FFF77EFB801B642876D828688003F7D5B0
:101D70000CE0FFF775FB064605E000BFFFF770FBC0
:101D8000801B6428F0D828688003F7D42078DFF817
:101D9000C89280074FF0000A44D5DBF8001058467F
:101DA00011F00C0F0FD00168C1F38101022902D19B
:101DB0003968490207D50068C0F3810003280AD1B9
:101DC0003868400207D42868800715D5E0680128E4
:101DD00000D111E03AE1E068B0B10120C9F800009B
:101DE000FFF73EFB064604E0FFF73AFB801B0228A4
:101DF000BAD828688007F7D52868216920F0F8004C
:101E000040EAC10028600DE0C9F800A0FFF728FBF8
:101E1000064604E0FFF724FB801B02281CD8286834
:101E20008007F7D42078000727D5DFF828828B4871
:101E3000616908F16C0881B101210160FFF710FBB5
:101E4000064604E0FFF70CFB801B022804D8D8F8F4
:101E500000008007F6D510E089E0C0F800A0FFF789
:101E6000FFFA064605E000BFFFF7FAFA801B0228DA
:101E70007DD8D8F800008007F6D42078400769D5CF
:101E800074484FF0000838300068C0000BD4714827
:101E90003830016841F08051016000684FF001085E
:101EA00000F0805000906E4E3068C00511D430684C
:101EB00040F480703060FFF7D3FA009006E000BF76
:101EC000FFF7CEFA0099401A022850D83068C005B2
:101ED000F6D5604EA068683601280FD00528306816
:101EE00010D020F001003060306820F00400306035
:101EF000A068B8B1FFF7B4FA00900FE0306840F086
:101F00000100F4E740F004003060F7E7FFF7A8FABB
:101F10000099411A41F28830814264D830688007C4
:101F2000F4D50EE0FFF79CFA009007E0FFF798FA6F
:101F30000099411A41F28830814254D830688007B4
:101F4000F4D4B8F1000F05D042483830016821F0D0
:101F500080510160A069A8B3DBF80010C1F38101D2
:101F6000022947D00228C9F860A005D000E03AE075
:101F7000FFF776FA044639E0FFF772FA064604E006
:101F8000FFF76EFA801B02282DD828688001F7D44D
:101F9000F4E907010843E168324A490802EB0141CC
:101FA000A26841EA82110843217C40EA0160217D58
:101FB00040EA017038600120C9F86000FFF750FA6C
:101FC000044606E044E000BFFFF74AFA001B02287F
:101FD00009D828688001F7D53AE000BFFFF740FA3A
:101FE000001B022802D90320BDE8F88F2868800171
:101FF000F4D42DE00128F7D03868E26900F48001BC
:10200000914223D1226A00F03F0191421ED147F64E
:10201000C071626A0140B1EB821F17D1A26A4FF012
:10202000FF3300F4403103EB5202B1EB024F0DD10C
:1020300094F82C2000F07061B1EB026F06D194F897
:10204000301000F0E040B0EB017F01D00120CBE781
:102050000020C9E70838024000004742800E47428E
:10206000007000400000FFFF10B5401EB0F1807FFF
:1020700001D3012010BD4FF0E02460610F216017F3
:1020800000F091FE0020A06107202061002010BD1B
:1020900070477047F8B5016804460868CA684B691C
:1020A00010F00F0F4FF0000559D003F0010602F4B5
:1020B0009077374365D0C10705D0D10503D5616C52
:1020C00041F001016164410705D5D90703D0616C76
:1020D00041F002016164810705D5D90703D0616C25
:1020E00041F004016164010707D502F0200131438A
:1020F00003D0616C41F008016164616C00293AD041
:10210000800604D5900602D5204600F024FD206804
:102110004069616CC0F38010090700D460B32046A9
:1021200000F0F2FC20684069400621D52068143098
:1021300050E8001F21F0400140E80012002AF5D1CC
:10214000E06BA8B16E490165E06BFEF72FFF002838
:1021500011D0E06B016D01B0BDE8F0400847830687
:102160000FD593060DD52046BDE8F84000F0F3BC2E
:102170002046FFF78EFFF8BD2046FFF78AFF656413
:10218000F8BD266B2023012E7DD1C6067BD5D60651
:1021900079D508684868009048694FF00206400603
:1021A00041D5E16B086840680004000CE8D0A28DBE
:1021B0008242E5D9E085C869B0F5807F2DD02068DE
:1021C0000C3050E8001F21F4807140E80012002A12
:1021D000F5D12068143050E8001F21F0010140E8DB
:1021E0000012002AF5D12068143050E8001F21F0B9
:1021F000400140E80012002AF5D184F842302563FE
:1022000020680C3050E8001F21F0100140E8001257
:10221000002AF5D1E06BFEF780FE6663A08DE18DAC
:10222000401A81B22AE0A08DE18D401A81B2E08D82
:102230000028A5D00029A3D022680C3252E8000F54
:1022400020F4907042E80007002FF5D12068143088
:1022500050E8002F22F0010240E80027002FF5D1BE
:1022600084F84230256320680C3050E8002F22F0BB
:10227000100240E80023002BF5D166632046FFF7EB
:1022800007FFF8BDFFE705062BD5150629D594F8FD
:1022900041002128F5D1A068B0F5805F01D1206907
:1022A000B0B1206A411C2162216800784860E08C4E
:1022B000401E0004000CE084E3D12068C16821F0D6
:1022C0008001C1602068C16841F04001C160D8E769
:1022D000206A0088C0F308004860206A801C2062E1
:1022E000E5E74006CDD55006CBD5CA68204622F09A
:1022F0004002CA6084F8413000F0FBF8C1E70000FA
:10230000F92A000870B5040004D094F841000025B3
:1023100010B106E0012070BD84F84050204600F066
:1023200023F8242084F841002068C16821F400517A
:10233000C160204600F070FC2068016921F49041E2
:1023400001612068416921F02A0141612068C1686A
:1023500041F40051C1606564202084F8410084F894
:1023600042006563002070BD2DE9F04186B006464D
:1023700014216846FEF796F830493068884259D1F2
:102380002F480024016841F010010160006800F04E
:10239000100005902A481438016841F001010160DD
:1023A0000068694600F0010005904FF4C06000909D
:1023B0000220CDE901040320039007200490214866
:1023C000FEF752FF214D20484FF000672860C5E915
:1023D00001744FF48068C5E903486C61AC61EC613D
:1023E0002C6228466C62FEF7C3FE08B1FEF793FD2F
:1023F000F563AE63154D144860353030E5E80207EB
:102400004020A5E81101114845F814496030AC613D
:10241000EC612C626C62FEF7ABFE08B1FEF77BFD4F
:10242000B563002211462520AE63FFF719FB252076
:10243000FFF708FB06B0BDE8F08100000010014086
:10244000443802400000024088640240B800002086
:1024500070472DE9F843044690F841009846164627
:102460000D46202802D00220BDE8F88385B17EB158
:1024700000206064212084F84100FEF7F1FFA6846B
:102480008146E684A0682027B0F5805F02D003E093
:102490000120E9E7206910B12E4600250EE0002654
:1024A0000CE08021204600F03DFCA8B9C6B116F82A
:1024B000010B21684860E08C401EE084E08C4B46B4
:1024C0004FF00002CDF800800028EAD14FF0400123
:1024D000204600F027FC40B184F841700320C3E798
:1024E00035F8020BC0F30800E3E784F841700020E0
:1024F000BAE77047FEE701684A69D24352050FD434
:102500006FF480624A61002140F8301F202242733C
:102510008173026942F00402026101730120704775
:10252000002070472DE9F84F0446006889460B9D4E
:1025300001689846174641F480610160206801688F
:1025400041F48071016000954FF0011B0022594653
:1025500020460A9B00F0E4F84FF4007A40B120686E
:102560000068C00501D5C4F840A00320BDE8F88F7D
:10257000216809F0FE0008612B46284920460A9A86
:1025800000F016F9F0BB20684169806900902A4686
:1025900020460A9900F0A2F940B1206C04283AD1F3
:1025A0002068016841F40071016034E0FEB2B8F1C6
:1025B000010F09D02168380A08612A4620460A9985
:1025C00000F08CF90028E8D1206806612A462046F0
:1025D0000A9900F083F90028DFD12068016841F4EE
:1025E0008071016000950022594620460A9B00F048
:1025F00097F80028B3D1216809F0FF0040F00100EE
:10260000086100E007E02B46044920460A9A00F0E2
:10261000CFF80028AAD00120A8E70000020001009E
:102620002DE9F843044600680D46DDE90897016886
:102630009846164641F4807101604B4600224FF0E7
:1026400001112046009700F06BF848B1206800683F
:10265000C00502D54FF4007020640320BDE8F88364
:10266000216805F0FE0008613B464A4615492046B0
:1026700000F09EF888B920684169806900903A4668
:102680004946204600F02AF948B1206C042804D1BC
:102690002068016841F4007101600120DEE7F5B2B5
:1026A000B8F1010F09D02168300A08613A4649465D
:1026B000204600F013F90028E7D1206805610020CA
:1026C000CCE700000200010070B516460D46044636
:1026D0001EE02046FFF70FFF08B1012070BD681C07
:1026E00016D0FEF7BDFE801BA84200D885B9206831
:1026F0004069C04340070BD5002044F8300F20212B
:102700006173A073216941F0200121612073E4E726
:1027100020684069C0434007DBD4002070BD000042
:102720002DE9F047984617460D460446C1F3074683
:10273000DDF820902AE000BFB8F1FF3F26D0FEF779
:102740008FFEA0EB0901414502D8B8F1000F1DD161
:102750002068012E16D0806925EA00000004000CD4
:1027600012D00020B84211D1002044F8300F2021AF
:102770006173A073216941F0200121612073012060
:10278000BDE8F0874069E7E70120EBE72068012E0C
:102790000AD0806925EA00000004000C06D0002061
:1027A000B842C9D00020EBE74069F3E70120F7E722
:1027B0002DE9F047984616460D4604464FF00009AD
:1027C0004FF0200AC1F3074723E020684069C04367
:1027D000400515D42068016841F40071016021684A
:1027E0006FF480604861C4F8309084F83DA084F8AC
:1027F0003E90216C41F00401216484F83C9021E07A
:10280000701C06D0FEF72CFEA0EB0800B04203D8E7
:1028100016B1012F1FD021E02068012F15D080694B
:1028200025EA00000004000C18D000BF44F8309FD7
:1028300084F80DA084F80E90216941F020012161F7
:1028400084F80C900120BDE8F087406925EA00007B
:102850000004000CEAD12068406901E0206880692A
:1028600025EA00000004000CAFD1ECE72DE9F041AF
:10287000002590460E460446202728E04069C043C4
:10288000C0060CD454F8301B6FF01000486144F8B7
:1028900010596777A577206A2062257714E0FEF744
:1028A000DFFDA0EB0800B04200D886B9206840697F
:1028B000C04340060BD544F8305F6773A5732069A9
:1028C00040F02000206125730120BDE8F0812068E0
:1028D0004169C9434906D1D40020F6E770B51646D0
:1028E0000D4604461EE02046FFF705FE08B1012014
:1028F00070BD681C16D0FEF7B3FD801BA84200D83F
:1029000085B920684069C04300060BD5002044F813
:10291000300F20216173A073216941F020012161F2
:102920002073E4E720684069C0430006DBD4002040
:1029300070BD00000D4808B5016841F480010160D8
:102940000068002200F48000009011464420FFF748
:1029500087F84420FFF776F8002211464620FFF75B
:102960007FF8BDE808404620FFF76CB830380240D9
:1029700070B586B014216846FDF794FD1248002416
:10298000016841F001010160016801F00101059158
:10299000016841F00201016000680C4E00F0020085
:1029A0004FF400450590224629463046FEF752FD79
:1029B00001200095CDE90104694630460394FEF7F5
:1029C00053FC06B070BD00003038024000000240E9
:1029D0000D4810B50B4901600C49416000214FF4CE
:1029E00080428160C0E9031241618161C16101627D
:1029F000FEF73CFD002803D0BDE81040FEF78BBA7F
:102A000010BD0000005400401C000020801A060089
:102A10000C4810B50A4901604FF4E13141600021D2
:102A200081600C22C160C0E904128161C161FFF7BD
:102A300069FC002803D0BDE81040FEF76CBA10BD59
:102A40000010014070000020FEE7FEE7704770476D
:102A5000FEF79EBF30B593B034216846FDF722FDE6
:102A600014210DA8FDF71EFD1D480025016841F049
:102A700080510160006800F0805012901948016890
:102A800021F4404141F4804101600068022400F4D7
:102A9000404012900120039010200490009406946E
:102AA0000820CDE907504820CDE909040B94684679
:102AB0000C94FFF70DF908B172B6FEE70DA90F20CF
:102AC00081E831004FF48050CDE9100502210DA8B6
:102AD000FEF7F8FF002801D072B6FEE713B030BD54
:102AE00040380240007000400248016841F4700123
:102AF0000160704788ED00E010B5806B0021C18552
:102B0000C184FFF7C6FA10BD01680C3151E8002FEF
:102B100022F4907241E80023002BF5D101681431B2
:102B200051E8002F22F0010241E80023002BF5D1EB
:102B3000016B012909D101680C3151E8002F22F005
:102B4000100241E80023002BF5D1202180F842102B
:102B500000210163704708B590F84210222901D086
:102B6000022008BD82684FF480539A4201D1016966
:102B700021B1816A9A421BD04AB10AE00268816A97
:102B80005268C2F308020A80816A891C08E002695F
:102B900072B10268526802F07F020A70816A491CB1
:102BA0008162C18D491E0904090CC18503D01BE057
:102BB00002685268F1E70168CA6822F02002CA6020
:102BC0000168CA6822F48072CA6001684A6922F00A
:102BD00001024A61202180F8421000214163026B0A
:102BE000012A03D0FFF734FC002008BD016301680F
:102BF0000C3151E8002F22F0100241E80023002B95
:102C0000F5D101680A68D20602D50A6849680091C0
:102C1000818DFFF73DFAE7E770B50446006801696A
:102C2000E26821F44051114301612169A068E26921
:102C300008436169114308432168CA6849F20C637B
:102C40009A430243CA6020684169A26921F4407135
:102C50001143416131492068884202D0304988429D
:102C600002D1FEF7D9FF01E0FEF7C6FFE2690023BB
:102C7000192164253226B2F5004F626828D0A0FBE6
:102C80000101930F9200FDF719FB0146B0FBF5F02F
:102C90006FF01802504301EB800006EB0010B0FB10
:102CA000F5F000F0F002B1FBF5F002EB0012B1FB21
:102CB000F5F06FF01803584301EB800006EB0010AD
:102CC000B0FBF5F000F00F0021681044886070BD83
:102CD000A0FB010192185B41FDF7F0FA0146B0FB41
:102CE000F5F00201B1FBF5F06FF01803584301EB6A
:102CF000800006EBC000B0FBF5F000F0F80002EB3E
:102D00004002B1FBF5F0584301EB800006EBC00038
:102D1000B0FBF5F000F00700D6E70000001001401E
:102D2000001401402DE9F843984617460D46044625
:102D3000089E24E0701C22D0FEF792FBA0EB080056
:102D4000B0421AD8CEB12068C168490717D5802D86
:102D500015D0402D13D00168C94309070FD401686D
:102D60000025406800902046FFF7CEFE08206064F2
:102D700084F840500120BDE8F8830320FBE7206879
:102D8000006835EA000004D00020B842D2D000200C
:102D9000F1E70120F9E700000148FFF77BB90000E7
:102DA00070000020FEE70907090E002804DB00F18F
:102DB000E02080F80014704700F00F0000F1E020E0
:102DC00080F8141D7047000013B54FF0FF33012247
:102DD00069460248FFF73DFB00981CBD70000020CB
:102DE0001FB5FEF7DDFDFFF735FEFFF7C1FDFFF76D
:102DF000A1FDFFF7EDFDFFF70BFE00F058F8DFF83F
:102E000050B000BF00F032F8824600F03AF8814638
:102E100000F042F8804600F095F8044600F05CF8B7
:102E2000054600F064F8064600F06CF807460F21EE
:102E30005846FEF707FB4FF47A70FEF703FA8DE869
:102E4000F00043464A46514602A0FDF7AFFAD9E7E3
:102E50000000024025642C25642C25642C25642C5C
:102E600025642C25642C25640A00000010B53B2045
:102E700000F054F8000204B23C2000F04FF8204368
:102E800010BD10B53D2000F049F8000204B23E200C
:102E900000F044F8204310BD10B53F2000F03EF88C
:102EA000000204B2402000F039F8204310BD10B5F4
:102EB000752000F033F868280DD118211B2000F090
:102EC0004DF810211C2000F049F80121BDE8104008
:102ED0006B2000F043B810BD10B5432000F01EF881
:102EE000000204B2442000F019F8204310BD10B5D0
:102EF000452000F013F8000204B2462000F00EF85E
:102F0000204310BD10B5472000F008F8000204B2BD
:102F1000482000F003F8204310BD00001FB54FF01B
:102F2000FF33012203A98DE80E0013460246D0218B
:102F30000348FEF75FFB9DF80C0004B010BD0000D5
:102F40001C00002010B54120FFF7E8FF000204B28A
:102F50004220FFF7E3FF204310BD000003B583B01C
:102F60004FF0FF33012204A98DE80E0013460246FC
:102F7000D0210248FEF740FC05B000BD1C00002037
:102F80004FF04070E1EE100A704700061016000680
:102F900010160000000000000000010203040607F4
:102FA000080900000000010203043A7474003A7436
:102FB00074003A7474000000D82F0008000000204C
:102FC0001C00000000020008F42F00081C00002074
:102FD000BC0800001C0200080100000010000000F6
:102FE000000000000024F4000000000000000000C9
:042FF00000000000DD
:04000005080001C529
:00000001FF
