:020000040800F2
:1000000018080020650200089B220008311B000828
:10001000992200086B0500088125000800000000F7
:100020000000000000000000000000009F22000807
:1000300001060008000000009D220008A12200081F
:100040007F0200087F0200087F0200087F0200088C
:100050007F0200087F0200087F0200087F0200087C
:100060007F0200087F0200087F0200087F0200086C
:100070007F0200087F0200087F0200087F0200085C
:100080007F0200087F0200087F0200087F0200084C
:100090007F0200087F0200087F0200087F0200083C
:1000A0007F0200087F0200087F0200087F0200082C
:1000B0007F0200087F0200087F0200087F0200081C
:1000C0007F0200087F0200087F0200087F0200080C
:1000D0007F020008752500087F0200087F020008E3
:1000E0007F0200087F0200087F0200087F020008EC
:1000F0007F0200087F0200087F0200087F020008DC
:100100007F0200087F0200087F0200087F020008CB
:100110007F0200087F0200087F0200087F020008BB
:100120007F0200087F0200087F0200087F020008AB
:100130007F02000800000000000000007F020008AD
:100140007F0200087F0200087F0200087F0200088B
:100150006D0500087F020008790500087F0200088D
:100160007F0200087F0200087F0200087F0200086B
:100170007F0200087F0200087F02000800000000E4
:10018000000000007F0200080000000000000000E6
:100190007F02000800000000000000007F0200084D
:1001A0000000000000000000000000007F020008C6
:1001B0007F0200087F0200087F0200087F0200081B
:1001C0007F02000800F002F800F03CF80AA090E876
:1001D000000C82448344AAF10107DA4501D100F002
:1001E00031F8AFF2090EBAE80F0013F0010F18BF93
:1001F000FB1A43F00103184700650000206500006A
:10020000103A24BF78C878C1FAD8520724BF30C842
:1002100030C144BF04680C60704700000023002414
:1002200000250026103A28BF78C1FBD8520728BF06
:1002300030C148BF0B6070471FB505F0A6FB1FBD5E
:1002400010B510BD00F05CF91146FFF7F5FF03F0A3
:1002500093FE00F07AF903B4FFF7F2FF03BC00F05D
:100260007DF900000948804709480047FEE7FEE79E
:10027000FEE7FEE7FEE7FEE7FEE7FEE7FEE7FEE756
:1002800004480549054A064B704700003923000819
:10029000C5010008180200201808002018040020DA
:1002A0001804002053EA020C00F069802DE9F04B9D
:1002B0004FF00006002B1FBFB3FA83F503FA05F4D5
:1002C00024FA05F65E4012BF1643B2FA82F502FA2E
:1002D00005F4C5F120051EBF22FA05FC44EA0C0412
:1002E000203556EA044C4FEA144418BF641C4FF002
:1002F00000084FF00009904271EB030C39D300293C
:1003000019BFB1FA81F701FA07F6B0FA80F700FADF
:1003100007F6C7F120071EBF20FA07FC46EA0C06C5
:100320002037B6FBF4FCA7EB0507103F07F01F0BC7
:10033000CBF120060CFA0BFB2CFA06F644BFB346B1
:100340000026202FA4BF5E464FF0000B5BEA060C90
:1003500008BF4FF0010B19EB0B09ABFB027C48EB1C
:100360000608C01B06FB02CC0BFB03CC71EB0C0197
:10037000C1E70B46024641464846BDE8F08B13B53F
:100380004FF000004FF00001AFF30080BDE81C40CB
:10039000704710B54C1084EA530404D54042C1F1B3
:1003A000000138BF491E1B4204D55242C3F100036D
:1003B00038BF5B1EFFF776FF14F0804F04D0404239
:1003C000C1F1000138BF491E14F0004F04D0524261
:1003D000C3F1000338BF5B1E10BD40EA010310B536
:1003E0009B070FD1042A0DD310C808C9121F9C42C5
:1003F000F8D020BA19BA884201D9012010BD4FF0B7
:10040000FF3010BD1AB1D30703D0521C07E0002003
:1004100010BD10F8013B11F8014B1B1B07D110F860
:10042000013B11F8014B1B1B01D1921EF1D1184663
:1004300010BD02F0FF0343EA032242EA024200F049
:1004400037B84FF0000200B513469446964620395F
:1004500022BFA0E80C50A0E80C50B1F12001BFF47D
:10046000F7AF090728BFA0E80C5048BF0CC05DF8E3
:1004700004EB890028BF40F8042B08BF704748BF31
:1004800020F8022B11F0804F18BF00F8012B7047A5
:1004900070477047704710B500F02AF8006810BD2B
:1004A00010B5044600F024F8046010BD4FF00002BF
:1004B0000429C0F0128010F0030C3FF4C4AFCCF15B
:1004C000040CBCF1020F18BF00F8012BA8BF20F8E4
:1004D000022BA1EB0C01FFF7B6BF5FEAC17C24BF82
:1004E00000F8012B00F8012B48BF00F8012B7047E2
:1004F00000487047B401002000487047B401002054
:100500007546FFF7F9FFAE4605006946534620F0F1
:100510000700854618B020B5FFF7B2FEBDE82040C1
:100520004FF000064FF000074FF000084FF0000BAF
:1005300021F00701AC46ACE8C009ACE8C009ACE862
:10054000C009ACE8C0098D46704710B50446AFF34A
:1005500000802046BDE81040FFF77DBE014918200D
:10056000ABBEFEE7260002007047FEE7014800F040
:10057000A5B80000E4000020014800F09FB800008A
:100580004401002001681823CAB2103AB2FBF3F20A
:10059000054B6FF30901032A9B5CC36500D9091D54
:1005A00081650846704700009E59000810B5014655
:1005B00000208B698A6A4FF0C07453B1B3F5005FB5
:1005C00015D072B1012A0CD0022A0AD0032A09D10F
:1005D00004E01AB1012A06D0022A03D1C96AC9016E
:1005E00000D5012010BDC96AA142FAD010BD002A71
:1005F000F7D0012AF2D0022AF3D0032AF3D010BD9B
:10060000704772B6FEE72DE9F0410446876D00F0B1
:1006100095FA064694F835000025022806D0802079
:10062000606584F834500120BDE8F08120680168DD
:1006300021F0160101602068416921F080014161CB
:10064000206C08B9A06C20B12068016821F0080175
:1006500001602068016821F0010101600CE000F0F8
:100660006DFA801B052807D920206065032084F8D7
:10067000350084F83450D7E720680068C007EED111
:1006800094F85C103F208840B860012084F8350061
:1006900084F834500020C7E790F83510022903D0C1
:1006A0008021416501207047052180F835100068E0
:1006B000016821F001010160002070472DE9F84335
:1006C00004464FF00009CDF8009063484FF41651EE
:1006D000A56D0068B0FBF1F72E6894F85C10082057
:1006E00000FA01F131420FD021680A6852070BD598
:1006F0000A6822F004020A6094F85C108840A8603E
:10070000606D40F00100606594F85C104FF00108E6
:1007100008FA01F0304208D021684969090604D579
:10072000A860606D40F00200606594F85C100420E1
:100730008840304208D021680968890704D5A8603C
:10074000606D40F00400606594F85C1010208840F3
:10075000304218D021680968090714D5A8602068BC
:100760000168490304D50068000308D5A16C07E0BF
:100770000168C90503D4016821F008010160216CFA
:1007800009B12046884794F85C1020208840304208
:1007900031D021680968C9062DD5A86094F83500C4
:1007A00005282068016806D0490347D50068000382
:1007B0001DD4616C1CE021F01601016020684169C4
:1007C00021F080014161206C08B9A06C20B1206843
:1007D000016821F00801016094F85C103F20884016
:1007E000A86084F8358084F83490216D1FE0E16BB7
:1007F00009B120468847606D00282BD0606DC00786
:1008000014D0052084F835002068016821F001012A
:1008100001600098401C0090B84203D8206800682E
:10082000C007F6D184F8358084F83490E16C002953
:1008300010D001B02046BDE8F04308470168C90563
:10084000D5D4016821F01001016084F8358084F866
:100850003490CCE7BDE8F8830C0000202DE9F0418E
:10086000044600F06BF906465CB1022084F83500BE
:10087000002584F834502068016821F001010160EE
:100880000DE00120BDE8F08100F058F9801B05283B
:1008900005D920206065032084F83500F2E7206840
:1008A0000068C007F0D12268116820480140D4E9EF
:1008B00001031843D4E903363343184363691843EB
:1008C000A3691843E3691843236A18430843616A1C
:1008D000042903D1D4E90B1319430843106020689D
:1008E0004069666A20F0070130460E43012704285C
:1008F0000CD1A06A0643E06A40B12046FFF756FEDD
:1009000020B14020606584F83570BAE72068466100
:100910002046FFF737FE94F85C203F21914081602C
:10092000656584F835700020ACE700003F8010F06A
:1009300070B5044600F002F90546601C02D0044878
:100940000078044400F0FAF8401BA042FAD370BDCE
:10095000000000202DE9F84FDFF8ACA100220124AF
:1009600003254FF00F090AF1040BAAF1040E00BF92
:100970000B6804FA02F63340B3426ED10F7907F0E8
:100980000307012F01D0022F16D187684FEA4208D2
:1009900005FA08FC27EA0C07D1F80CC00CFA08FC91
:1009A0004CEA070CC0F808C04768B7430E79C6F395
:1009B000001696403E4346600E79F643B6070AD0CD
:1009C000C6684FEA420C05FA0CF7BE438F6807FA77
:1009D0000CF73743C7600E7906F00306022E10D1DC
:1009E000D60800EB8608D8F8206057074FEAD76C86
:1009F00009FA0CF7BE430F6907FA0CF73743C8F83A
:100A0000207006684FEA420C05FA0CF7BE430F79D6
:100A100007F0030707FA0CF7374307604E6816F430
:100A2000403F6BD0394E376847F4804737603668AF
:100A300022F0030706F480460096354E07EB060CBD
:100A4000DCF8086897074FEA177809FA08F7BE43F9
:100A5000304FB84202D100271FE04FE02E4FB8427E
:100A600001D1012719E02D4FB84201D1022714E02E
:100A70002B4FB84201D103270FE02A4FB84201D1D2
:100A800004270AE0284FB84201D1052705E0274F87
:100A9000B84201D1062700E0072707FA08F73743D5
:100AA000CCF80878DAF800605746D1F804C09E43C5
:100AB0005FEACC2C00D51E433E60DBF800605F4649
:100AC000D1F804C09E435FEA8C2C00D51E433E60E3
:100AD000DEF800607746D1F804C09E435FEA8C3CA4
:100AE00000D51E433E60084F083F3E68D1F804C061
:100AF0009E435FEACC3C00D51E433E60521C102A48
:100B0000FFF436AFBDE8F88F083C0140443802409E
:100B10000030014000000240000402400008024092
:100B2000000C024000100240001402400018024075
:100B30000AB1816170470904FBE700000148806841
:100B4000704700000000002070B5040025D094F824
:100B50003D00002520B984F83C50204600F052FAB0
:100B6000242084F83D002068016821F00101016023
:100B70002068016841F4004101602068016821F4A7
:100B80000041016000F0A6FB4D4A6168914201D826
:100B90004C4900E04C49884201D2012070BD4B49CC
:100BA0002368B0FBF1F15E6826F03F060E435E60FD
:100BB0006368934206D94FF4967359434FF47A739E
:100BC000B1FBF3F12368491C1E6A26F03F0631434E
:100BD00019626168914210D84900401EB0FBF1F2E1
:100BE000521CC2F30B02042A01D2042022E0B0FB03
:100BF000F1F0401CC0F30B001CE0A268F2B301EB63
:100C0000C10303EB0116431EB3FBF6F35B1C43F475
:100C100080431B0549D092B301EBC10202EB0111E5
:100C2000401EB0FBF1F0401CC0F30B0040F48040CC
:100C300040F400402168CA694CF6FF739A431043A0
:100C4000C861D4E9071001432068026822F0C0029D
:100C500011430160D4E9030101432068826848F22E
:100C6000FF339A4311438160D4E9050108432168A9
:100C7000CA6822F0FF021043C86001E00EE016E0EF
:100C80002068016841F0010101602564202084F89A
:100C90003D00256384F83E50002070BD01EB410605
:100CA000431EB3FBF6F35B1CB3E70120C2E701EB85
:100CB0004101401EB0FBF1F0401CC0F30B00B7E750
:100CC000A086010080841E0000093D0040420F0004
:100CD0002DE9FF4F83B09A46DDE91187934604461C
:100CE000DDF84090FFF72AFF054694F83D002028E4
:100CF00070D11923012274492046009501F02EF885
:100D00000028F5D194F83C00012863D0012084F834
:100D10003C0020680168C90703D1016841F0010166
:100D200001602068016821F400610160222084F8DC
:100D30003D00402084F83E0000262664C4F824903C
:100D4000A4F82A80608D20856048E062CDE90075B6
:100D500053465A462046049900F002FF002879D1F4
:100D6000208DD0B1012821D00228206824D04169EB
:100D700080690090208D032866D801282BD0544923
:100D800002283B464FF00002009557D08846204687
:100D900000F0E4FF00285DD13AE0206841698169F4
:100DA0000091016841F4007101607DE020680168F4
:100DB00021F480610160F0E7016821F48061016045
:100DC0002068016841F40061016020684169806920
:100DD000009069E075E02A463946204601F064F843
:100DE00088BB54E02068016841F40071016020680C
:100DF0000069616A0870606A401C6062218D491E4A
:100E00002185618D491E618521680969017042E073
:100E10002068016821F48061016020680069616ACE
:100E20000870606A401C6062208D401E2085608DC5
:100E3000401E60853B46002241460095204600F05A
:100E40008DFF00B9CEE705E02A463946204601F07D
:100E50002BF818B1012007B0BDE8F08F20680069B9
:100E6000616A0870606A401C6062208D401E81B219
:100E70002185608D401E608520684269D2435207FB
:100E800012D4032903D1016821F480610160206834
:100E90000069616A0870606A401C6062208D401EB3
:100EA0002085608D401E6085208D00287FF462AF14
:100EB000202084F83D0084F83E6084F83C600020E7
:100EC000C9E70220C7E70000020010000000FFFF92
:100ED000040001002DE9FF4F83B09A46DDE9119728
:100EE00093460446DDF84080FFF728FE054694F857
:100EF0003D0020287FD1192301224049204600953A
:100F000000F02CFF002876D194F83C00012872D024
:100F1000012084F83C0020680168C90703D10168FA
:100F200041F0010101602068016821F40061016065
:100F3000212084F83D00402084F83E0000262664ED
:100F4000C4F82480A4F82A90608D20852C48E062A3
:100F5000CDE9007553465A462046049900F07EFEBE
:100F600070B930E02A463946204600F0D5FF58B126
:100F7000206C042804D12068016841F400710160EC
:100F8000012007B0BDE8F08F606A21680078086131
:100F9000606A401C6062218D491E89B22185628D84
:100FA000521E628522685369DB435B070BD469B12B
:100FB00000781061606A401C6062208D401E2085B0
:100FC000608D401E6085208D0028CBD12A46394691
:100FD000204600F097FE0028CAD154F83D0B016866
:100FE00041F400710160202004F81E09E67766775D
:100FF0000020C6E7FFE70220C3E700000200100060
:101000000000FFFF10B586B0044614216846FFF7C4
:1010100018FA13492068884220D11248002102683A
:1010200042F002020260006800F002000590C02059
:1010300000901220CDE901010320039004200490C8
:1010400069460948FFF786FC06481030016841F4FC
:1010500000110160006800F40010059006B010BD9A
:1010600000540040303802400004024002488168C9
:101070000278114481607047000000200B4810B5D1
:10108000016841F400710160016841F48061016010
:10109000016841F480710160032000F06FF80F20B7
:1010A00000F006F800F024F8002010BD003C0240DB
:1010B00070B50D4D04464FF47A712878B1FBF0F00D
:1010C0000A490968B1FBF0F000F03CFB48B9102C6C
:1010D00007D200222146501E00F030F800206C603C
:1010E00070BD012070BD0000000000200C00002039
:1010F0000A4808B5016841F480410160006800F4C5
:10110000804000900548001F016841F08051016057
:10111000006800F08050009008BD00004438024094
:10112000002809DB00F01F020121914040098000E6
:1011300000F1E020C0F8001170470000F0B40E4B41
:101140001B680C46C3F30223C3F10705042D00D925
:101150000425191D072901D2002300E0DB1E01260A
:1011600006FA05F1491E214099409E40761E164020
:101170003143F0BC01F01DBA0CED00E0064900F06F
:10118000070208684FF6FF03184040EA0220034AAE
:1011900010430860704700000CED00E00000FA0505
:1011A0002DE9F0470E46050065D0DFF81481D8F828
:1011B0000000F7B200F00F00B04207D288F80070CC
:1011C000D8F8000000F00F00B04254D128683D4C20
:1011D000810712D5400703D5206840F4E050206015
:1011E0002878000703D5206840F46040206020681C
:1011F000A96820F0F000084320602878C0072DD0AF
:10120000304968680839012812D0022813D0032811
:1012100011D00968890700292DDA216821F003011E
:1012200001432160FFF78AFC814641F2883A0EE0D3
:1012300009688903EFE709688901ECE7FFF77EFC9D
:10124000A0EB0901514502D90320BDE8F0872068D1
:10125000696800F00C00B0EB810FEFD1D8F80010F6
:10126000404601F00F01B14207D90770006800F055
:101270000F00B04201D00120E7E72878400705D5EC
:101280002068E96820F4E0500843206028780007CF
:1012900006D52068296920F4604040EAC10020603A
:1012A00000F038F82168084AC1F30311515CC840C6
:1012B0000649086006480068FFF7FAFE0020C4E708
:1012C000003C024008380240A65900080C000020EB
:1012D000040000200448054900680968044AC1F375
:1012E0008221515CC84070470C0000200838024041
:1012F000B65900080448054900680968044AC1F362
:101300004231515CC84070470C0000200838024050
:10131000B6590008224810B5006810F00C022148A8
:1013200015D02149042A11D01D4C241F082A0FD0A2
:101330000C2A0CD12268236802F03F025B0221D5FF
:101340002068C0F38810A0FB010120E0084610BD12
:101350002268236802F03F025B0205D52068C0F3D3
:101360008810A0FB010104E02168C1F38811A1FBF2
:1013700000010023FEF796FF2168C1F30141491CDB
:1013800049000AE02168C1F38811A1FB0001002394
:10139000FEF788FF2168C1F30271B0FBF1F010BDC8
:1013A000083802400024F40040787D012DE9F84F10
:1013B00004007DD0DFF878B32078ABF10407C007D4
:1013C000A7F1040550D0DBF800105846C1F38101A5
:1013D00001290FD00168C1F38101022902D13968C6
:1013E000490207D40068C0F38100032809D1386896
:1013F000400206D52868800336D560680028D8D01A
:1014000032E06068B0F5803F10D0B0F5A02F2868BA
:1014100010D020F480302860286820F480202860D4
:101420006068A0B1FFF78AFB06460CE0286840F42C
:101430008030F4E740F480202860F7E7FFF77EFB78
:10144000801B642876D828688003F7D50CE0FFF766
:1014500075FB064605E000BFFFF770FB801B6428A4
:10146000F0D828688003F7D42078DFF8C892800786
:101470004FF0000A44D5DBF80010584611F00C0F6D
:101480000FD00168C1F38101022902D139684902F4
:1014900007D50068C0F3810003280AD138684002EC
:1014A00007D42868800715D5E068012800D111E02D
:1014B0003AE1E068B0B10120C9F80000FFF73EFB57
:1014C000064604E0FFF73AFB801B0228BAD82868DA
:1014D0008007F7D52868216920F0F80040EAC100AC
:1014E00028600DE0C9F800A0FFF728FB064604E0DD
:1014F000FFF724FB801B02281CD828688007F7D43C
:101500002078000727D5DFF828828B48616908F129
:101510006C0881B101210160FFF710FB064604E071
:10152000FFF70CFB801B022804D8D8F800008007C6
:10153000F6D510E089E0C0F800A0FFF7FFFA0646F4
:1015400005E000BFFFF7FAFA801B02287DD8D8F823
:1015500000008007F6D42078400769D574484FF022
:10156000000838300068C0000BD47148383001687A
:1015700041F08051016000684FF0010800F0805098
:1015800000906E4E3068C00511D4306840F4807011
:101590003060FFF7D3FA009006E000BFFFF7CEFA05
:1015A0000099401A022850D83068C005F6D5604E20
:1015B000A068683601280FD00528306810D020F0C8
:1015C00001003060306820F004003060A068B8B1DD
:1015D000FFF7B4FA00900FE0306840F00100F4E744
:1015E00040F004003060F7E7FFF7A8FA0099411ACD
:1015F00041F28830814264D830688007F4D50EE02B
:10160000FFF79CFA009007E0FFF798FA0099411A5B
:1016100041F28830814254D830688007F4D4B8F160
:10162000000F05D042483830016821F08051016038
:10163000A069A8B3DBF80010C1F38101022947D0EB
:101640000228C9F860A005D000E03AE0FFF776FA7A
:10165000044639E0FFF772FA064604E0FFF76EFA37
:10166000801B02282DD828688001F7D4F4E90701EF
:101670000843E168324A490802EB0141A26841EAA5
:1016800082110843217C40EA0160217D40EA01701B
:1016900038600120C9F86000FFF750FA044606E000
:1016A00044E000BFFFF74AFA001B022809D8286867
:1016B0008001F7D53AE000BFFFF740FA001B02288F
:1016C00002D90320BDE8F88F28688001F4D42DE00A
:1016D0000128F7D03868E26900F48001914223D1F3
:1016E000226A00F03F0191421ED147F6C071626A42
:1016F0000140B1EB821F17D1A26A4FF0FF3300F413
:10170000403103EB5202B1EB024F0DD194F82C2083
:1017100000F07061B1EB026F06D194F8301000F068
:10172000E040B0EB017F01D00120CBE70020C9E70A
:101730000838024000004742800E474200700040D7
:101740000000FFFF10B5401EB0F1807F01D30120E3
:1017500010BD4FF0E02460610F21601700F029FFF9
:101760000020A06107202061002010BD7047704755
:10177000F8B5016804460868CA684B6910F00F0F95
:101780004FF0000559D003F0010602F4907737437B
:1017900065D0C10705D0D10503D5616C41F00101C9
:1017A0006164410705D5D90703D0616C41F002019E
:1017B0006164810705D5D90703D0616C41F004014C
:1017C0006164010707D502F02001314303D0616C49
:1017D00041F008016164616C00293AD0800604D5AB
:1017E000900602D5204600F0DEFD20684069616C5D
:1017F000C0F38010090700D460B3204600F0ACFDB0
:1018000020684069400621D52068143050E8001F48
:1018100021F0400140E80012002AF5D1E06BA8B1A8
:101820006E490165E06BFEF737FF002811D0E06BD1
:10183000016D01B0BDE8F040084783060FD593065F
:101840000DD52046BDE8F84000F0ADBD2046FFF7BD
:101850008EFFF8BD2046FFF78AFF6564F8BD266B52
:101860002023012E7DD1C6067BD5D60679D5086802
:101870004868009048694FF00206400641D5E16B88
:10188000086840680004000CE8D0A28D8242E5D9C7
:10189000E085C869B0F5807F2DD020680C3050E815
:1018A000001F21F4807140E80012002AF5D1206861
:1018B000143050E8001F21F0010140E80012002A16
:1018C000F5D12068143050E8001F21F0400140E8B5
:1018D0000012002AF5D184F84230256320680C30CC
:1018E00050E8001F21F0100140E80012002AF5D155
:1018F000E06BFEF788FE6663A08DE18D401A81B231
:101900002AE0A08DE18D401A81B2E08D0028A5D09B
:101910000029A3D022680C3252E8000F20F4907006
:1019200042E80007002FF5D12068143050E8002F5E
:1019300022F0010240E80027002FF5D184F8423060
:10194000256320680C3050E8002F22F0100240E898
:101950000023002BF5D166632046FFF707FFF8BD93
:10196000FFE705062BD5150629D594F84100212857
:10197000F5D1A068B0F5805F01D12069B0B1206ACF
:10198000411C2162216800784860E08C401E000400
:10199000000CE084E3D12068C16821F08001C160BF
:1019A0002068C16841F04001C160D8E7206A008822
:1019B000C0F308004860206A801C2062E5E740060A
:1019C000CDD55006CBD5CA68204622F04002CA6069
:1019D00084F8413000F0ABF8C1E70000492300086B
:1019E00070B5040004D094F84100002510B106E061
:1019F000012070BD84F84050204600F023F82420D8
:101A000084F841002068C16821F40051C16020467B
:101A100000F02AFD2068016921F4904101612068ED
:101A2000416921F02A0141612068C16841F40051F7
:101A3000C1606564202084F8410084F84200656339
:101A4000002070BD2DE9F04186B00646142168469D
:101A5000FEF7F7FC30493068884259D12F480024FE
:101A6000016841F010010160006800F0100005906D
:101A70002A481438016841F0010101600068694694
:101A800000F0010005904FF4C06000900220CDE905
:101A9000010403200390072004902148FEF75AFF19
:101AA000214D20484FF000672860C5E901744FF4CC
:101AB0008068C5E903486C61AC61EC612C62284622
:101AC0006C62FEF7CBFE08B1FEF79BFDF563AE63DB
:101AD000154D144860353030E5E802074020A5E890
:101AE0001101114845F814496030AC61EC612C6279
:101AF0006C62FEF7B3FE08B1FEF783FDB56300220A
:101B000011462520AE63FFF719FB2520FFF708FBE0
:101B100006B0BDE8F08100000010014044380240EA
:101B20000000024088640240E400002070477047D3
:101B3000FEE701684A69D24352050FD46FF4806210
:101B40004A61002140F8301F2022427381730269EC
:101B500042F00402026101730120704700207047C7
:101B60002DE9F84F0446006889460B9D01689846A8
:101B7000174641F4806101602068016841F480717A
:101B8000016000954FF0011B0022594620460A9B38
:101B900000F0E4F84FF4007A40B120680068C00516
:101BA00001D5C4F840A00320BDE8F88F216809F0F2
:101BB000FE0008612B46284920460A9A00F016F9D3
:101BC000F0BB20684169806900902A4620460A9946
:101BD00000F0A2F940B1206C04283AD120680168D5
:101BE00041F40071016034E0FEB2B8F1010F09D098
:101BF0002168380A08612A4620460A9900F08CF9C3
:101C00000028E8D1206806612A4620460A9900F09B
:101C100083F90028DFD12068016841F480710160F8
:101C200000950022594620460A9B00F097F80028AC
:101C3000B3D1216809F0FF0040F00100086100E025
:101C400007E02B46044920460A9A00F0CFF8002806
:101C5000AAD00120A8E70000020001002DE9F84306
:101C6000044600680D46DDE9089701689846164667
:101C700041F4807101604B4600224FF00111204673
:101C8000009700F06BF848B120680068C00502D5E5
:101C90004FF4007020640320BDE8F883216805F04C
:101CA000FE0008613B464A461549204600F09EF872
:101CB00088B920684169806900903A4649462046C3
:101CC00000F02AF948B1206C042804D1206801688A
:101CD00041F4007101600120DEE7F5B2B8F1010FB7
:101CE00009D02168300A08613A464946204600F08A
:101CF00013F90028E7D1206805610020CCE7000037
:101D00000200010070B516460D4604461EE020464E
:101D1000FFF70FFF08B1012070BD681C16D0FEF759
:101D20000DFF801BA84200D885B920684069C043D8
:101D300040070BD5002044F8300F20216173A073B9
:101D4000216941F0200121612073E4E720684069A6
:101D5000C0434007DBD4002070BD00002DE9F047F0
:101D6000984617460D460446C1F30746DDF8209015
:101D70002AE000BFB8F1FF3F26D0FEF7DFFEA0EB60
:101D80000901414502D8B8F1000F1DD12068012E8C
:101D900016D0806925EA00000004000C12D0002053
:101DA000B84211D1002044F8300F20216173A07394
:101DB000216941F02001216120730120BDE8F087F5
:101DC0004069E7E70120EBE72068012E0AD080692F
:101DD00025EA00000004000C06D00020B842C9D05B
:101DE0000020EBE74069F3E70120F7E72DE9F04732
:101DF000984616460D4604464FF000094FF0200A5B
:101E0000C1F3074723E020684069C043400515D46B
:101E10002068016841F40071016021686FF48060FE
:101E20004861C4F8309084F83DA084F83E90216C5D
:101E300041F00401216484F83C9021E0701C06D03C
:101E4000FEF77CFEA0EB0800B04203D816B1012FCC
:101E50001FD021E02068012F15D0806925EA0000FD
:101E60000004000C18D000BF44F8309F84F80DA087
:101E700084F80E90216941F02001216184F80C90D2
:101E80000120BDE8F087406925EA00000004000C4D
:101E9000EAD12068406901E02068806925EA0000F5
:101EA0000004000CAFD1ECE72DE9F041002590468D
:101EB0000E460446202728E04069C043C0060CD4E3
:101EC00054F8301B6FF01000486144F810596777E0
:101ED000A577206A2062257714E0FEF72FFEA0EB9D
:101EE0000800B04200D886B920684069C043400667
:101EF0000BD544F8305F6773A573206940F020006C
:101F0000206125730120BDE8F08120684169C94343
:101F10004906D1D40020F6E770B516460D460446B2
:101F20001EE02046FFF705FE08B1012070BD681CC9
:101F300016D0FEF703FE801BA84200D885B92068A2
:101F40004069C04300060BD5002044F8300F202123
:101F50006173A073216941F0200121612073E4E7DE
:101F600020684069C0430006DBD4002070BD00003B
:101F700070B50D462DED0C8B8EB006460CA902A84F
:101F80001446F7EE00BACDE900010BAB03AA09A98C
:101F900007A801F085F928B14FF0FF300EB0BDEC75
:101FA0000C8B70BDBDF80800C0057CD59DED030A03
:101FB000F8EEC00A9FED440AB0EE00CA60EE809AC7
:101FC000DDED040AF8EEE00A69EE8CCA20EE808AA4
:101FD000DDED050AF8EEE00A60EE808ADDED060A26
:101FE000F8EEE00A20EE809AB8EE000A28EE00BA79
:101FF0002BEE090A0CEEA80A10EE100A03F054FCAE
:1020000041EC100B00F0E8FA9FED30AB51EC100BF7
:1020100053EC1A2B03F088F902F054FF2BEE080A58
:1020200028EE8CDA30600DEE680A30EE2B0A10EEE6
:10203000100A03F039FC2DEE090A41EC1B0B0CEEE3
:10204000880A10EE100A03F02FFC41EC100BB0EEE2
:102050004B1AF0EE6B1A00F0DBFD53EC1A2B51EC2F
:10206000100B03F061F902F02DFF29EEA90A286098
:1020700008EE080A08EEE80A09EE490A10EE100A0E
:1020800003F012FC29EE890A41EC1B0B08EE280A2A
:1020900020EE0C0A10EE100A03F006FC41EC100BC7
:1020A000B0EE4B1A00E00CE0F0EE6B1A00F0B0FD61
:1020B00053EC1A2B51EC100B03F036F902F002FF2F
:1020C000206000206AE700000000803066666666D7
:1020D00066A64C4038B5684602F03AF810B14FF0A9
:1020E000FF3038BD782002F07DFD10B16FF00100A7
:1020F00038BD782001F058FF10B16FF0020038BDF4
:10210000642002F023FD10B16FF0030038BD01F030
:10211000BDF810B16FF0040038BD1948044601F055
:1021200007FF0546E01C01F003FF45EAC005A01DBE
:1021300001F0FEFE45EA801080B201F05BFA10B1BA
:102140006FF0050038BD40F2731000F077FF10B15A
:102150006FF0060038BD642001F0B4F910B16FF0E3
:10216000070038BD02F0E6FD10B16FF0080038BD81
:10217000012002F0E7FB0028F9D06FF0090038BD1C
:10218000100000200D4808B5016841F4800101608D
:102190000068002200F48000009011464420FEF701
:1021A000CDFF4420FEF7BCFF002211464620FEF77B
:1021B000C5FFBDE808404620FEF7B2BF30380240F8
:1021C00070B586B014216846FEF73BF9124800242A
:1021D000016841F001010160016801F00101059110
:1021E000016841F00201016000680C4E00F002003D
:1021F0004FF400450590224629463046FEF798FCEC
:1022000001200095CDE90104694630460394FEF7AC
:10221000A1FB06B070BD0000303802400000024053
:102220000D4810B50B4901600C49416000214FF485
:1022300080428160C0E9031241618161C161016234
:10224000FEF782FC002803D0BDE81040FEF7D9B9A4
:1022500010BD00000054004048000020801A060015
:102260000C4810B50A4901604FF4E131416000218A
:1022700081600C22C160C0E904128161C161FFF775
:10228000AFFB002803D0BDE81040FEF7BAB910BD7F
:10229000001001409C000020FEE7FEE770477047F9
:1022A000FEF7E4BE30B593B034216846FEF7C9F8B6
:1022B00014210DA8FEF7C5F81D480025016841F05E
:1022C00080510160006800F0805012901948016848
:1022D00021F4404141F4804101600068022400F48F
:1022E0004040129001200390102004900094069426
:1022F0000820CDE907504820CDE909040B94684631
:102300000C94FFF753F808B172B6FEE70DA90F2041
:1023100081E831004FF48050CDE9100502210DA86D
:10232000FEF73EFF002801D072B6FEE713B030BDC5
:1023300040380240007000400248016841F47001DA
:102340000160704788ED00E010B5806B0021C18509
:10235000C184FFF70CFA10BD01680C3151E8002F61
:1023600022F4907241E80023002BF5D1016814316A
:1023700051E8002F22F0010241E80023002BF5D1A3
:10238000016B012909D101680C3151E8002F22F0BD
:10239000100241E80023002BF5D1202180F84210E3
:1023A00000210163704708B590F84210222901D03E
:1023B000022008BD82684FF480539A4201D101691E
:1023C00021B1816A9A421BD04AB10AE00268816A4F
:1023D0005268C2F308020A80816A891C08E0026917
:1023E00072B10268526802F07F020A70816A491C69
:1023F0008162C18D491E0904090CC18503D01BE00F
:1024000002685268F1E70168CA6822F02002CA60D7
:102410000168CA6822F48072CA6001684A6922F0C1
:1024200001024A61202180F8421000214163026BC1
:10243000012A03D0FFF77AFB002008BD0163016881
:102440000C3151E8002F22F0100241E80023002B4C
:10245000F5D101680A68D20602D50A684968009178
:10246000818DFFF783F9E7E770B5044600680169DD
:10247000E26821F44051114301612169A068E269D9
:1024800008436169114308432168CA6849F20C6333
:102490009A430243CA6020684169A26921F44071ED
:1024A0001143416131492068884202D03049884255
:1024B00002D1FEF71FFF01E0FEF70CFFE2690023E7
:1024C000192164253226B2F5004F626828D0A0FB9E
:1024D0000101930F9200FDF7E5FE0146B0FBF5F018
:1024E0006FF01802504301EB800006EB0010B0FBC8
:1024F000F5F000F0F002B1FBF5F002EB0012B1FBD9
:10250000F5F06FF01803584301EB800006EB001064
:10251000B0FBF5F000F00F0021681044886070BD3A
:10252000A0FB010192185B41FDF7BCFE0146B0FB28
:10253000F5F00201B1FBF5F06FF01803584301EB21
:10254000800006EBC000B0FBF5F000F0F80002EBF5
:102550004002B1FBF5F0584301EB800006EBC000F0
:10256000B0FBF5F000F00700D6E7000000100140D6
:10257000001401400148FFF7FBB800009C00002058
:10258000FEE703B401984100009850EAC12018BF4B
:1025900004204A0D18BF40F0010040F2FF72B2EB78
:1025A000515F08BF40F00200012808BF052002B0BB
:1025B00070470907090E002804DB00F1E02080F8CD
:1025C0000014704700F00F0000F1E02080F8141DA7
:1025D000704700000000000070B5C1482DED020BEF
:1025E0002DED0E8B82B0119D25F000449FEDBEDBDA
:1025F0009FEDBFEB84423EDBA4F140511098A1F166
:102600007F6108430FD0BC48844202DC28D1109877
:1026100030B39DED100B02B0BDEC0E8B02B0BDE8E7
:10262000704000F069BC9DED100B53EC1D2B51EC7C
:10263000100B02F079FE9DED100B41EC180B53ECE2
:102640001E2B51EC100B02F06FFE53EC182B02F016
:102650006BFC41EC100B02B0BDEC0E8B02B070BDF8
:102660000120FDF71DFF02B0BDEC0E8B02B0BDE8EE
:10267000704000F055BCA1489FEDA18B844256DA12
:102680009DED100BB4F1795F0ADA51EC100BFFF7F6
:1026900078FF042808BF00F053FC9DED100BDAE72B
:1026A00053EC102B51EC100B02F03EFE41EC190BD9
:1026B00095480621B0EE490AF0EE690A784400F028
:1026C0009FFB53EC192B51EC100B02F02DFE41EC4B
:1026D0001A0B8E48B0EE490AF0EE690A04217844DC
:1026E00000F08EFB53EC192B51EC100B02F01CFE8A
:1026F00053EC182B02F018FC41EC100B51EC1A0BA8
:1027000053EC102B02F0B8FCCDE900019DED000B5D
:1027100053EC102B9DED100B51EC100B02F004FE4E
:102720009DED101B53EC112B02F0FEFBD2E09DED52
:10273000100B51EC100B01F01DF953EC182B02F0AB
:10274000F1FE9FED730BCDE9000153EC102B9DEDD5
:10275000000B51EC100B02F0E7FD41EC190B6E4839
:102760000621B0EE490AF0EE690A784400F048FB11
:1027700053EC192B51EC100B02F0D6FD41EC1B0B66
:102780006648B0EE490AF0EE690A0421784400F088
:1027900037FB53EC192B51EC100B02F0C5FD53EC39
:1027A000182B02F0C1FB41EC1C0B51EC190B02F091
:1027B00045FB41EC180B5A489FED5BABA04222DC75
:1027C00053EC1C2B51EC1B0B02F056FCCDE9000125
:1027D0009DED000B51EC180B53EC102B02F0A4FDF7
:1027E00053EC182B02F0A0FB53EC1A2B02F09CFDCB
:1027F00053EC1D2B02F06EFF53EC1E2B02F092FEE9
:1028000041EC100B5FE08DED008B002000909DED02
:10281000000B51EC180B53EC102B02F085FB9DEDD7
:10282000000B41EC1E0B53EC102B51EC100B02F083
:102830007BFD53EC192B02F075FE53EC1E2B02F0BE
:102840001BFC41EC190B53EC1C2B51EC1B0B02F045
:1028500013FC41EC1B0B53EC1A2B51EC190B02F03F
:1028600063FD53EC1D2B02F05DFE41EC190B53ECA4
:102870001A2B51EC180B02F057FD53EC1B2B02F0F6
:1028800053FD53EC192B02F025FF9DED000B41EC9D
:10289000180B53EC1A2B51EC100B02F045FD9FED79
:1028A000249B53EC192B02F03DFE41EC100B51EC34
:1028B000180B53EC102B02F00DFF53EC192B02F008
:1028C00031FE41EC100B002D3FF7C5AE51EC100B63
:1028D00002F0EBFA41EC100BBDE600000000000036
:1028E0000000F03F00000000075C143326A6913C76
:1028F000182D4454FB21F93F0000F07F0000E03F19
:10290000000000000000F03F483F0000563F00007C
:10291000000000000000E03F9A3E0000A83E0000DA
:102920003333EF3F000000000000000000000040D3
:10293000182D4454FB21E93F70B59B482DED020B47
:102940002DED068B079D25F00044A04218DC97482A
:10295000844202DC0AD1069840B19DED060BBDEC25
:10296000068B02B0BDE8704000F0C6BA002DCCBFA7
:102970009FED8F0B9FED900BBDEC068B02B070BDF1
:102980008F48A04215DD8F48A042D8BF4FF0FF34DA
:1029900058DD9DED060B51EC100BFFF7F2FD0428FE
:1029A00008BF00F0CDFA9DED060BBDEC068B02B022
:1029B00070BD9DED060B51EC100B00F0DBFFCDE977
:1029C000060181489FED828BA0423CDD8248A042F7
:1029D0001FDD00249FED82AB9DED060B53EC1A2BFF
:1029E00051EC100B02F0A0FA9DED060B41EC190B17
:1029F00053EC1A2B51EC100B02F096FC53EC182BF5
:102A000002F068FE53EC192B02F036FBCDE906010B
:102A100049E09DED060B012453EC182B51EC100BF3
:102A200002F082FA9DED060B41EC190B53EC182BCA
:102A300051EC100B02F04EFE53EC192B02F01CFB74
:102A4000CDE906012FE06848A0421FDD02249FED7A
:102A5000689B9DED060B53EC192B51EC100B02F00B
:102A600063FC53EC182B02F05FFA9DED060B41EC72
:102A7000180B53EC192B51EC100B02F02BFE53ECFE
:102A8000182B02F0F9FACDE906010CE09DED060BDA
:102A9000032453EC102B9FED580B51EC100B02F05C
:102AA000EBFACDE906019DED060B53EC102B51EC32
:102AB000100B02F039FC41EC180B53EC182B02F010
:102AC00033FC41EC190B4E480621B0EE490AF0EEFA
:102AD000690A784400F094F953EC182B51EC100B70
:102AE00002F022FC41EC180B4648B0EE490AF0EE29
:102AF000690A0521784400F083F953EC192B51EC55
:102B0000100B02F011FC41EC100B51EC180B53ECC4
:102B1000102B002C0EDA02F007FA9DED061B53EC89
:102B2000112B02F001FC9DED061B53EC112B02F062
:102B3000F9FC35E002F0F8F99DED061B53EC112B82
:102B400002F0F2FB41EC100B2F48784400EBC4007C
:102B500090ED001B51EC100B53EC112B02F0BAFD61
:102B60009DED061B53EC112B02F0B4FD41EC100B54
:102B70002648784400EBC40090ED001B51EC100B8C
:102B800053EC112B02F0CEFC41EC100B002DA2BF38
:102B9000BDEC068B02B070BD51EC100B02F085F954
:102BA00041EC100B01E70000000010440000F07F32
:102BB000182D4454FB21F93F182D4454FB21F9BF33
:102BC0000000DC3F0000203E0000F33F000000005A
:102BD000000000000000F03F0000E63F00000000A1
:102BE00000000000000000400080034000000000E2
:102BF000000000000000F83F000000000000F0BFEF
:102C0000EA3B0000A03B00002A3B0000E23A000043
:102C100070B56B4E2DED040B2DED028B82B0DDF8FF
:102C20001CC0DDE905235C422CF000411C4341EA55
:102C3000D474049D22F00040B44205D86C422C4369
:102C400040EAD474B4420BD99DED061B9DED040BF4
:102C500002B0BDEC028B04B0BDE8704000F056B984
:102C6000ACF14054A4F17F641C430BD0022404EA6D
:102C7000AC7444EAD27405439FED538B9FED542B03
:102C800007D015E09DED040B51EC100B00F0B0F9EE
:102C900042E0002C11BF012C9DED040B02B0BDECF5
:102CA000028B04BF04B070BD022C38D0032C3BD083
:102CB0000B439FED491B9FED4A0B0AD0B14218D13F
:102CC000B04209D121F0804120F080400791059069
:102CD0000FE0002A15DA10E0434B7B44002C08BFBC
:102CE00093ED000B0DD0012C10D0022C17D0032C2B
:102CF0001AD0B0421DD1002A03DAB0EE410AF0EE3C
:102D0000610A02B0BDEC028B04B070BD93ED000B04
:102D100051EC100B02F0C9F841EC100BF1E7B0EEEA
:102D2000480AF0EE680AECE7B0EE420AF0EE620AFA
:102D3000E7E7401A00153C28C8BF8DED000B19DCF1
:102D4000BCF1000FBEBF10F13C0F9FED290B8DEDC4
:102D5000000B0FDB9DED060B53EC102B9DED040BD0
:102D600051EC100B02F088F900F004FE00F040F97D
:102D7000CDE90001002C08BF9DED000BC1D0012C56
:102D800010D0022C9FED1C0B53EC102B9DED000B73
:102D900051EC100B0DD002F09DFC53EC182B02F0FF
:102DA00099FCB9E7019880F0004001909DED000B7F
:102DB000A7E702F08FFC53EC182B02F0B3FBABE754
:102DC0000000F07F00000000182D4454FB21094052
:102DD000182D4454FB2109C0182D4454FB21F9BF80
:102DE000182D4454FB21F93F123A00000000000066
:102DF0000000000000000000075C143326A6A13C80
:102E000070B504462DED028B4D1E00EBC500B0EEF3
:102E1000408AF0EE608A90ED000B35F0060017D086
:102E200053EC182B51EC100B02F07EFA41EC100B16
:102E30006D1E04EBC50090ED001B51EC100B53EC24
:102E4000112B02F071F841EC100B35F00600E7D1C0
:102E5000022D36D0042D1CD0062D1CBFBDEC028BDC
:102E600070BD53EC182B51EC100B02F05DFA94ED91
:102E70000A1B53EC112B02F057F853EC182B02F0FD
:102E800053FA94ED081B53EC112B02F04DF841EC72
:102E9000100B53EC182B51EC100B02F045FA94ED8B
:102EA000061B53EC112B02F03FF853EC182B02F0E9
:102EB0003BFA94ED040B53EC102B02F035F841EC87
:102EC000100B53EC182B51EC100B02F02DFA94ED73
:102ED000021B53EC112B02F027F853EC182B02F0D5
:102EE00023FA94ED001B53EC112B02F01DF8BDECFE
:102EF000028B41EC100B70BD10B553EC102B51EC54
:102F0000100B02F011F841EC100B10BD10B553EC92
:102F1000112B51EC100B02F007F841EC100B10BD17
:102F20009FED050B10B553EC102B51EC100B02F07C
:102F3000A3F841EC100B10BD0000000000000000E1
:102F40009FED050B10B553EC102B51EC100B02F05C
:102F5000EBF941EC100B10BD000000000000001068
:102F6000FEB506460D460024684600F00FFD00221F
:102F70009FED1B1A6B46012156F8227055F822006E
:102F8000381A00D5404200EE100A03EB8200B8EE7A
:102F9000C00AD0ED000A20EE010AF5EEC00AF1EEFB
:102FA00010FA0DD0C0EE201AB7EE000A0D4F31EE28
:102FB000C00AB0EEC00A10EE100AB84207DC09E001
:102FC00010EE100A084F3844084FB84202D301FAF5
:102FD00002F00443521C032ACEDB2046FEBD000053
:102FE00000008037295C0F3E666666C19A99D90059
:102FF00010B541EC100BFFF79FFC51EC100B10BD0E
:1030000008B560B120208DF8000028208DF801005F
:1030100030208DF8020038208DF8030004E0A32250
:1030200004216846FDF705FA6A46042140F69E2011
:1030300001F046FE01F056FA08BD00003EB5044618
:1030400002208DF80000CA208DF80100E3208DF8E1
:10305000020009208DF803006A460421682001F06F
:103060002FFEA3208DF80000610609D5C0218DF840
:103070000110C8218DF80210C2218DF8031005E05F
:103080008DF801008DF802008DF8030014F4C07F64
:1030900009D0C4218DF80410CC218DF80510C6216B
:1030A0008DF8061005E08DF804008DF805008DF808
:1030B00006008DF808008DF807008DF809006A46B3
:1030C0000A2140F6A72001F0FBFDA0074FF0D8052C
:1030D00003D020208DF8000001E08DF800506A46F2
:1030E000012140F6B62001F0EBFDA00601D501203C
:1030F00000E0002000F08EF814F4C07F1ED0E00540
:103100000AD5B2208DF800008B208DF80100B62082
:103110008DF802009B2009E0B0208DF8000080208F
:103120008DF80100B4208DF8020090208DF8030086
:103130006A46042140F6A22001F0C2FDE1074FF4E7
:103140000B6022D0F8218DF800106A46012101F0B1
:10315000B7FDFA21072000F03DFB072000F008FB37
:10316000012000F025FB642000F0E4FB4FF4FA702E
:1031700000F0F0FBC821254800F0C2FA282000F03A
:10318000D7FA0A2000F0E4FA05E08DF800506A460C
:10319000012101F095FDA00703D5D9208DF800008D
:1031A00001E08DF800506A46012140F23D7001F0C7
:1031B00087FD600701D5012000E0002000F048F8FD
:1031C000E00601D5012000E00020FFF719FF104DB7
:1031D00044F00800688101F085F90020A8736006BA
:1031E00001D50620A87314F4C07F02D0A87B801DEF
:1031F000A87314F0140F02D0A87B1030A873A00796
:1032000002D0A87B001DA87300203EBD09E3CA02BE
:10321000A40100200EB54FF4976310B106A107C9B1
:1032200001E008A207CA8DE807006A46092118468E
:1032300001F046FD0EBD0000B8AAB38DB4980D355F
:103240005D000000B8AAAAAAB088C3C5C7000000E4
:1032500008B560B1C0208DF80000C2208DF80100D3
:10326000C4208DF80200C6208DF8030004E08B22F4
:1032700004216846FDF7DDF86A46042140F69820EF
:1032800001F01EFD01F02EF908BD0000C8234FF427
:103290008062024940F6F63000F0C8BF105A0008BC
:1032A0002DE9FF4F89B01746DDE9165200244E4E36
:1032B000884681462C80A246B07B694601F078F8AA
:1032C0004FF0FF3B18B158460DB0BDE8F08F708944
:1032D00010F0140F3ED0009909BA21F0FF029DF8BA
:1032E00003100A433A6001999DF8073009BA21F0AA
:1032F000FF0119437960029B9DF80B401BBA23F034
:10330000FF032343BB60039C121424BA24F0FF0C78
:103310009DF80F4009144CEA040C1024C7F80CC0A7
:103320001B144FEA2C4712FB02F211FB012113FB85
:1033300003F217FB07221144A1F17061B1F1007F84
:1033400004D901F0CFF8A5F800A0BCE7298841F422
:10335000807129804206694611D50A19A41D138877
:103360005BBAA8F8003053885BBAA8F8023092889C
:1033700052BAA8F804202A8842F008022A8010F4E1
:10338000C07F11D00A19A41D13885BBAA9F80030B8
:1033900053885BBAA9F80230928852BAA9F804207F
:1033A0002A8842F070022A80800716D00C44E07808
:1033B00000F0C00500F03F016078C00706D0C808E3
:1033C00001F007013268491C02B19047607800079C
:1033D00003D5716809B1A8098847FDF7AFFB0C99BF
:1033E0000860002070E70000A40100202DE9FF41E3
:1033F000044603A800F020FEBDF80C00410CC303F6
:1034000000BF2F48028902F00300550754F820003E
:1034100000D54042C2F3C105960654F8255000D5A8
:103420006D42C2F38116D20554F8264000D564429D
:10343000A0FB0367C21702FB037200FB012082009E
:1034400042EA9670A5FB0367EA1702FB037205FBCD
:103450000122950045EA9672A4FB0367E51705FB78
:10346000037304FB01318B0043EA9671030E8DF860
:103470000030030C8DF80130030A8DF802308DF80E
:103480000300100E8DF80400100C8DF80500100AD2
:103490008DF80600080E8DF80800080C8DF809005C
:1034A000080A8DF80A008DF807208DF80B106A467F
:1034B0000C214FF4257001F003FC04B0BDE8F0814D
:1034C000A401002030B5044613A285B007CA8DE8D8
:1034D00007004FF0FF35C82C16D8C820B0FBF4F118
:1034E000491E080A8DF80C008DF80D1003AA022160
:1034F00040F2162001F0E4FB30B96A460C2140F698
:10350000C12001F0DDFB10B1284605B030BD0548F3
:1035100084810020F9E70000FEF2ABC4AAF1DFDFEE
:10352000BBAFDFDFA4010020F8B53049098901F005
:10353000030250F822404A0700D56442C1F3C10299
:103540008B0650F8222000D55242C1F3811350F867
:103550002330C80500D55B42254984FB0140850026
:1035600045EA947082FB0142A40F44EA820483FB83
:103570000121950F45EA8105010E8DF80010010C1F
:103580008DF80110010A8DF802108DF803006A46CB
:1035900004214FF4747001F093FB4FF0FF3688B9AB
:1035A000200E8DF80000200C8DF80100200A8DF807
:1035B00002008DF803406A4604214FF4757001F053
:1035C0007FFB08B13046F8BD280E8DF80000280CAE
:1035D0008DF80100280A8DF802008DF803506A4624
:1035E00004214FF4767001F06BFBF8BDA4010020BC
:1035F00009E3CA022DE9FF4104463CA004F003039D
:10360000006802903AA0006803903AA006683AA0C9
:10361000056802A8C15C8DF80010C4F3C101425CCA
:103620008DF80120C4F38112805C8DF8020003A89C
:10363000C35C8DF80430415C8DF80510805C8DF81A
:1036400006006A46032140F2264001F039FB4FF0A4
:10365000FF37E0BB01AA032140F22A4001F030FB12
:10366000A8BBCDE9006560070BD59DF8000040F0D0
:1036700001008DF800009DF8040040F001008DF875
:103680000400A0060BD59DF8010040F001008DF864
:1036900001009DF8050040F001008DF80500E005EF
:1036A0000BD59DF8020040F001008DF802009DF856
:1036B000060040F001008DF806006A4603214FF431
:1036C000886001F0FDFA10B901AA032100E004E0CE
:1036D00040F2314001F0F4FA18B1384604B0BDE8C8
:1036E000F081064804810020F8E700004CCD6C0012
:1036F0000CC92C003656760026466600A401002030
:103700004FF47A7290FBF2F008B54843010E8DF841
:103710000010010C8DF80110010A8DF802108DF8CF
:1037200003006A4604214FF4AE7001F0C9FA08BDE7
:103730000521B0FBF1F008B5010A8DF800108DF8F5
:1037400001006A4602214FF4AD7001F0B9FA08BDDC
:103750000521B0FBF1F008B5010A8DF800108DF8D5
:1037600001006A4602214FF4AC7001F0A9FA08BDCD
:1037700008B500218DF80010C10702D030218DF866
:103780000010810705D59DF8001041F00C018DF85F
:103790000010400705D59DF8000040F003008DF8AB
:1037A00000006A4601214FF4A47001F089FA08BDB7
:1037B00008B560B1042800D90420401E8DF800002F
:1037C0006A46012140F24F1001F07AFA08BD01204B
:1037D000F3E7000070B504462DED028B82B0400780
:1037E0004FF0FF357ED0B1F5C86F7BD800EE101AD0
:1037F000B8EE400ADFED460A01A880EE208A00F00C
:10380000FDFB9DF80400022806D0042810D00828EB
:1038100035D0102874D13EE09FED3E0A28EE000A14
:10382000BCEEC00A10EE100A9FED3B0A82B20AE01D
:103830009FED3A0A28EE000ABCEEC00A10EE100A0C
:103840009FED370A82B228EE000A6E46BCEEC00A2F
:1038500010EE100A81B2100A8DF800008DF80120D8
:10386000080A8DF802008DF80310E00726D03246D2
:1038700002214FF4EA7001F023FA98BB17E09FEDA4
:10388000290A28EE000ABCEEC00A10EE100A9FEDCD
:10389000260A82B2D7E79FED250A28EE000ABCEE81
:1038A000C00A10EE100A9FED220A82B2CBE7B21CCA
:1038B00002214FF4927001F003FA98B9A0070DD5D8
:1038C0006A4602214FF4EC7001F0FAF950B9B21CCB
:1038D00002214FF4947001F0F3F918B9600714D580
:1038E0006A4600E00CE002214FF4EE7001F0E8F9C6
:1038F00030B9B21C02214FF4967001F0E1F920B109
:10390000284602B0BDEC028B70BD0020F9E7000034
:10391000000048430000804600004046000000468A
:103920000000C04500008045000040450000004503
:103930000000C0440521B0FBF1F008B5010A8DF884
:1039400000108DF801006A4602214FF4EF7001F07B
:10395000B7F908BD0521B0FBF1F008B5010A8DF8F3
:1039600000108DF801006A4602214FF4ED7001F05D
:10397000A7F908BD82B0CDE9000121F00040019017
:103980009DED000B02B051EC100B704710B586B0E6
:1039900004464FF48072042104A88DE807002748EC
:1039A00001230D22406801782548FDF791F910B1F7
:1039B000072006B010BD9DF810101C2000EAD102AF
:1039C0009DF81310DFED1F0AC1F301131A438DF8A0
:1039D0000C209DF81120C1F3810300EAD2021A43A2
:1039E0008DF80D209DF8122001F0030100EAD200AD
:1039F00008439FED151A9FED150A8DF80E00002162
:103A000003AA505C002804EB810002D080ED001A6C
:103A100008E0C0ED000A0BE0D0ED001A61EE801A5C
:103A2000C0ED001A535C5B1E13F0FF035354F3D137
:103A3000491CC9B20329E4D30020BAE71C000020C6
:103A400048000020000000007B14AE3E1D5A843F59
:103A50002DE9F04F87B04FF0010A0C4605468DF86E
:103A60000CA04FF000080DF10C098DF80D804FF4FB
:103A7000807602214846DFF8C4B38DE84300DBF8C6
:103A80000010DBF8040017464A7D01785346EC48E5
:103A9000FDF720FA00287DD1C820FCF749FF00205F
:103AA0008DF80C00B046CDF80090CDE901A8DBF808
:103AB00000005E460123427CDBF804000178E04808
:103AC000FDF708FA0028E6D1C346D046CA46CDE93C
:103AD00000A8CDF808B031687068B1464A7901781D
:103AE0000123D748FDF7F6F90028D4D103A9CDE981
:103AF0000018CDF808B0D9F80010D9F804005E46D7
:103B00004A7D0178CA460123CD48FDF7E3F9002834
:103B1000C1D1C1460DF10C08B34642468DE8040AF6
:103B2000DAF8000056460123827EDAF804000178B4
:103B3000C348FDF7CFF90028ADD1CA46C1468DE88C
:103B4000000E30680123027970680178BC48FDF7E7
:103B5000C1F900289FD10C208DF80C00CDF8009001
:103B6000CDE901AB3068D84601230279706801784D
:103B7000B348FDF7AFF900288DD10F20FCF7D8FE30
:103B8000B06A407A8DF80C00CDF80090CDE901A81C
:103B9000306800E097E08278706801230178A848D7
:103BA000FDF798F900288ED1B06A0123007A8DF8CC
:103BB0000C00CDF80090CDE901A83068427870681B
:103BC00001789F48FDF786F900287CD1B06A807A99
:103BD0000FB140F0E0008DF80C00CDF80090CDE979
:103BE00001A8306801238279706801789448FDF754
:103BF00071F9002867D127B1B06AC07A40F0E000BF
:103C000000E018208DF80C00CDF80090CDE901A857
:103C100031687068CB46CA79017801238848FDF77E
:103C200059F9002871D117B1C820FCF781FE402056
:103C30008DF80C004746CDF800B0CDE901A73068FB
:103C4000D146D84602797068012301787C48FDF797
:103C500041F9C0BB78208DF80C00CDF80080CDE98B
:103C60000197306801234279706801787448FDF744
:103C700031F940BB3220FCF75BFE4FF0000ABB4637
:103C80008DF80CA047468DE8800A30680123427900
:103C9000706801786A48FDF71DF9A0B9D94602207D
:103CA0000097CDE9010931687068BB460A7B01784D
:103CB000B04601236248FDF70BF820B9BDF80C00AF
:103CC0000C2140BA00E020E0B0FBF1F0C5F808A0FC
:103CD000C5F804A0C5F800A0C4F808A0C4F804A062
:103CE000C6B20027C4F800A040E00C21CDF800B017
:103CF000CDE90119D8F80010D8F8040001234A7B57
:103D000001784F48FCF7E4FF20B14FF0FF3007B0D7
:103D1000BDE8F08FBDF80C00236840BA01B2BDF8D1
:103D20000E00194440BA02B2BDF81000216061686B
:103D300040BA11446160A16800B20844A060BDF8B7
:103D400012002B6840BA02B2BDF81400BDF816107C
:103D50001A442A6040BA6A6800B21044686049BADE
:103D6000A86809B208447F1CFFB2A860B742BCD360
:103D700028688322C117090441EA10410004002386
:103D8000FCF707FB32460023FCF703FB286068685A
:103D90008322C117090441EA104100040023FCF703
:103DA000F8FA32460023FCF7F4FA6860A868832228
:103DB000C117090441EA104100040023FCF7E9FAA5
:103DC00032460023FCF7E5FAA86020684FF400654E
:103DD000C117090441EA104100042A460023FCF7F8
:103DE000D8FA32460023FCF7D4FA206060682A46ED
:103DF000C117090441EA104100040023FCF7C9FA85
:103E000032460023FCF7C5FA6060A0682A46C11755
:103E1000090441EA104100040023FCF7BAFA3246D3
:103E20000023FCF7B6FAA060002802DDA0F5803080
:103E300001E000F58030A060002068E71C00002051
:103E4000480000202DE9FF410E46074603AD4FF420
:103E5000807003210095CDE901102F480024012333
:103E600040680D2201782D48FCF732FF18B1072079
:103E700004B0BDE8F0819DF80C009FED291A00F018
:103E80001F008DF80C009DF80D0000F01F008DF84C
:103E90000D009DF80E0000F01F008DF80E000020B0
:103EA0005FF0010257F8201056F82030C91A00D5EB
:103EB000494200EE101A295CB8EEC00A60EE010A11
:103EC000D1B1B3EE090ADFED171A01E020EE210AA5
:103ED000C9B2491E11F0FF012954F7D1C0EE801A72
:103EE000B7EE000A104B31EEC00AB0EEC00A10EE79
:103EF000101A994207DC09E010EE901A0B4B194496
:103F0000B1F1D97F02D902FA00F10C43401C032819
:103F1000C8DB2046ACE700001C0000204800002061
:103F20000000803754E3853F295C0F3E0000E0BE6F
:103F300090F90010002902DD4FF00000704702DA0E
:103F40004FF00400704790F90110002902DD4FF096
:103F50000100704702DA4FF00500704790F9020047
:103F6000002802DD4FF00200704702DA4FF0060031
:103F700070474FF0070070470EB5FDF77FF8FEF76A
:103F800091F9FEF71DF9FEF7FDF8FEF749F9FEF786
:103F900067F900BFFEF79EF80028FBD101AA694629
:103FA00002A8FDF7E5FFF9E72DE9F041124C20F0FA
:103FB0000101002594F8240010B10020BDE8F08133
:103FC000A07A4FF0FF3668B10840277C2074884201
:103FD00000D0354641B1012000F0F2FE00F082FA37
:103FE00038B127743046E9E7207D00B1012000F0A8
:103FF000E7FE2846E2E700001C0000200D494A7A4F
:1040000042B1012A08D0022A0FD0032A0FD04FF064
:10401000FF307047022200E004220270C97C11B117
:104020001106C90D0170002070470822F5E7102223
:10403000F3E700001C0000200F494A7A42B1012A30
:1040400009D0022A11D0032A12D04FF0FF30704756
:104050004FF4804201E04FF400520280C97C11B15C
:10406000C2F34E010180002070474FF48052F4E704
:104070004FF40062F1E700001C0000200B49097AB0
:1040800039B1012907D002290AD003290BD0002118
:1040900003E0FA2101E04FF4FA710180002070473B
:1040A0004FF47A71F9E74FF4FA61F6E71C0000204B
:1040B0000D49097A41B1012909D002290DD00329FE
:1040C0000ED04FF0FF3070479FED080A01E09FEDE2
:1040D000080A80ED000A002070479FED060AF8E705
:1040E0009FED050AF5E700001C00002000000343D7
:1040F0000000834233330342333383410C49C97A8E
:10410000072913D2DFE801F01204060A0C0E100092
:10411000BC2100E062210180002070472A21FAE7DB
:104120001421F8E70A21F6E70521F4E70021F2E778
:104130001C000020054991F8242012B14FF0FF30F7
:104140007047C98901800020704700001C000020D2
:104150002DE9F04385B080208DF80C0047000DF16B
:104160000C08012640462F4C8DE8C10020683346DC
:10417000427D606801782C48FCF7ACFE4FF0FF39B7
:10418000F0BB6420FCF7D4FB00258DF80C50CDF873
:104190000080CDE9016720680123427D60680178D5
:1041A0002148FCF797FE58BBE574FF2004F80A0F7E
:1041B0004FF6FF7104F8020C04F8010C6070A18046
:1041C000A0712072A67026766576E572A572E5600C
:1041D00025616561A576E576A5834FF4FA6000F068
:1041E000FBFB68B9022000F0D5FA48B92A2000F09C
:1041F0006DFC28B9322000F0A9FC08B9002000E0CD
:1042000006E0FFF7D1FE18B9002000F0FFFA18B160
:10421000484605B0BDE8F083002000F0E3FC002034
:10422000F7E700001C000020480000202DE9FF4FA8
:10423000DFF8A080064689B098F8250015460F469D
:104240004FF0FF39E0BBDFB3002420E0301B102823
:1042500000DD102080B283463A190146924620467E
:1042600000F02EFD60BB03AA5946204600F000F97D
:1042700030BB50465A4603A9FCF7AFF820B16FF0A7
:1042800001000DB0BDE8F08F04EB0B0084B2B44226
:10429000DCD3280A8DF81C008DF81D504FF4807275
:1042A000022107A88DE80700D8F800004446012342
:1042B000427FD8F8040001780748FCF70BFE08B1EC
:1042C0004846DEE7012084F825000C98E0840020B1
:1042D000D7E700001C000020480000202DE9FF5F08
:1042E0000546282851D800262F4C0DF10C094FF017
:1042F00007084FF4807A02277DB1012000F0ACFB63
:1043000020208DF80C004FF0010B012D1BD0052D46
:104310001CD88DF80DB0052022E0002000F09CFB99
:10432000CDE900978DF80C608DF80D80CDF808A0D0
:1043300020680123427D606801781C48FCF7CAFDB3
:1043400018BB26752EE08DF80D60E4E7142D03D818
:104350008DF80D700A2003E003208DF80D00142065
:1043600000F0B4FB9DF80D10CDE9009708EB81102B
:104370008DF80D00CDF808A020680123427D60680B
:1043800001780A48FCF7A6FD20B14FF0FF3004B0D9
:10439000BDE8F09F0820A072267384F814B00020B6
:1043A000FFF702FE0020F2E71C000020480000207A
:1043B0002DE9FF5F2C4C0646904694F824008B466E
:1043C0004FF0FF3AC0B3A07AB0B30DF10C094FF42F
:1043D0008077022148468DE8830020680123027B14
:1043E000606801782148FCF773FC28BBBDF80C001D
:1043F00045BAB54203D2002188F800102AE060686F
:104400004188B5EB510F18D90122CDF80090CDE9C4
:10441000012721680123CA7C01781448FCF758FC65
:1044200050B99DF80C00C00607D500F05BF86FF09E
:10443000010004B0BDE8F09F0CE0CDF800B0CDE97C
:10444000016720680123427B606801780748FCF718
:104450003FFC08B15046ECE7B5FBF6F0401E88F88B
:1044600000000020E5E700001C00002048000020BC
:104470002DE9FF4115000E464FF0FF3729D0174CAC
:10448000A17A31B3010A8DF80C10C0B28DF80D007D
:1044900081196068428991421BD8022203ABCDE9A1
:1044A00000324FF48078CDF8088021680123CA7E5D
:1044B00001780B48FCF70EFD58B98DE860012068C3
:1044C0000123027E606801780548FCF701FC0028A2
:1044D00000D0384604B0BDE8F08100001C00002088
:1044E000480000202DE9FF476C4C4FF0FF3AA07ABE
:1044F00000287CD000270DF10C088DF80C704FF4CB
:104500008076012540468DE8610020682B46427C7C
:10451000606801786248FCF7DDFC002867D1CDF8BF
:104520000080CDE901562168606801234A7901784D
:104530005B48FCF7CFFC002859D1CDF80080CDE9CD
:1045400001562168606801230A7901785448FCF714
:10455000C1FC00284BD194F8240088B30C208DF8BE
:104560000C00CDF80080CDE90156206801230279C6
:10457000606801784A48FCF7ADFC002837D132204A
:10458000FCF7D6F9C0208DF80C00A07AC00702D045
:10459000E0208DF80C00CDF80080CDE901562068B0
:1045A000C14601230279606801783D48FCF792FC1E
:1045B00000286ED1607C20B102208DF80C0002E052
:1045C00019E08DF80C70CDE90095B046CDF8088063
:1045D00020684E460123427C606801783048FCF731
:1045E00079FC20B98DF80C70CDF8088000E050E01F
:1045F000CDE9006543E004208DF80C00CDF8008083
:10460000CDE90156206801230279606801782448C9
:10461000FCF760FCE8BBA07CA0B9A07AC00711D071
:104620005FF060008DF80C00CDF80080CDE90156F8
:10463000206801230279606801781948FCF74AFC78
:1046400038BB01E04020EDE73220FCF771F9607CD7
:1046500010B18DF80C5001E08DF80C70CDF8008091
:10466000CDE9015620680123427C606801780C483E
:10467000FCF730FC68B9094810308DE8610020680B
:1046800001234279606801780548FCF723FC002883
:1046900000D0504604B0BDE8F08700001C000020A8
:1046A000480000202DE9F047394C82468AB094F842
:1046B0002400894620B1002000F044F9012600E0E2
:1046C000002607A8FFF7DAFC06A8FFF797FC09A861
:1046D000FFF714FD08A8FFF72DFD94F80A80277C4A
:1046E0000025002249465046FFF7B2F910B16D1C73
:1046F000022DF6DB022D1AD00025012203A96846FF
:10470000FFF7A6F910B16D1C022DF6DB022D0ED0BD
:1047100003A94846FEF724FCC5B269465046FFF798
:1047200091FB10F0FF0F4FF0000002D002E00025D7
:1047300005E001200DB940F0020040F00405FF2023
:1047400020726072E0724FF6FF71E181A0722074F6
:1047500001202073BDF81C0000F03EF99DF8180000
:1047600000F018F8BDF8240000F0B0F9BDF8200002
:1047700000F0ECF9404600F035FA3846FFF714FC3B
:1047800016B1012000F0DEF80AB02846BDE8F08737
:104790001C0000207FB51B4C4FF0FF35A17A51B3B0
:1047A000022806D0042806D008280ED0102822D1CE
:1047B0000DE0002000E008208DF80C00607A9DF8E4
:1047C0000C10B0EBD10F04D006E01020F4E7182055
:1047D000F2E7002004B070BD4FF48072012103A8FD
:1047E0008DE8070020680123C279606801780648D7
:1047F000FCF770FB08B12846ECE79DF80C00C008F8
:104800006072E6E71C000020480000202DE9FF4709
:104810004A4C0746A07CB84203D1002004B0BDE852
:10482000F08746484FF0FF3A4FF48075D0E900100A
:104830004FF0010803AECFB30096CDE901850A79A8
:10484000017801233E48FCF743FA002871D19DF816
:104850000C00CDE9006820F02000A9468DF80C007E
:10486000CDF80890206845460123027960680178F8
:104870003348FCF72FFBE8BB0320FCF759F8022074
:104880008DF80C0094F8220010B182208DF80C00F5
:1048900094F8230028B19DF80C0040F030008DF80A
:1048A0000C00CDE90065CDF8089039E0FFE7CDE9CF
:1048B000006802950A79017801232148FCF708FA7B
:1048C000C0B9A07AC0079DF80C0002D040F02000CB
:1048D00001E020F02000A9468DF80C0035468DE857
:1048E0002003206801230279606801781448FCF7EE
:1048F000F1FA00E01DE0E0B90320FCF719F894F8A4
:10490000220000B180208DF80C0094F8230028B11B
:104910009DF80C0040F030008DF80C008DE820036D
:1049200020680123C27D606801780548FCF7D2FA4F
:1049300008B1504672E7A7746FE700001C00002022
:10494000480000202DE9FF41214C94F824108142B9
:1049500024D000264FF48077012530B394F8250049
:1049600000B3002000F02CFA0020FFF74FFFE08C8E
:1049700000F0ECF88DF80C6003A88DE8A1006068E9
:104980000123232201781348FCF7A4FA84F8245069
:10499000012000F015FA00BFFFF7A4FD002004B0CD
:1049A000BDE8F0814FF0FF30F9E7002000F008FA91
:1049B000207C8DF80C0003A88DE8A100606801231D
:1049C000232201780348FCF785FA84F82460E3E7A2
:1049D0001C000020480000207FB51D4C4FF0FF3523
:1049E000A17A69B3FA2809D0B0F5FA7F08D0B0F5FA
:1049F0007A7F0FD0B0F5FA6F22D10DE0002000E0F1
:104A000008208DF80C00207A9DF80C10B0EBD10F27
:104A100004D006E01020F4E71820F2E7002004B0EC
:104A200070BD4FF48072012103A88DE80700206853
:104A300001238279606801780648FCF74BFA08B1D7
:104A40002846ECE79DF80C00C0082072E6E700005D
:104A50001C000020480000207FB51A4C054694F841
:104A60002300A84202D1002004B070BD0DB1302057
:104A700000E000208DF80C00A07C28B19DF80C000F
:104A800040F002008DF80C0094F8220028B19DF847
:104A90000C0040F080008DF80C004FF48072012172
:104AA00003A88DE8070020680123C27D60680178B3
:104AB0000548FCF70FFA10B14FF0FF30D4E784F847
:104AC0002350D0E71C000020480000207FB51D4C7B
:104AD0004FF0FF35A17A79B30121BC2802D38DF8BC
:104AE0000C1012E0622801D302200CE02A2801D326
:104AF000032008E0142801D3042004E00A2801D38D
:104B0000052000E006208DF80C00E07A9DF80C20CE
:104B1000904202D1002004B070BD03AA4FF480700F
:104B20000092CDE901102068012382786068017845
:104B30000548FCF7CFF908B12846ECE79DF80C00D2
:104B4000E072E7E71C000020480000202DE9FF414B
:104B5000224D04464FF0FF37A87A78B395F8240029
:104B600060BB287D4FF47A7648B164B1282C03D815
:104B70002046FFF7B3FB2EE00020FFF7AFFB042C2D
:104B800005D2042406E00020FFF7A8FBF9E7B442B1
:104B900000D93446B6FBF4F0401E8DF80C004FF4FB
:104BA0008072012103A88DE807002868012342785C
:104BB000686801780A48FCF78DF918B1384604B0E6
:104BC000BDE8F0819DF80C00401CB6FBF0F0E881D8
:104BD0004008FFF77BFF0020F1E700001C000020E9
:104BE000480000202DE9FF47054610F0700F4FF0F8
:104BF00001074FF0000602D08DF80C7006E015B1E9
:104C00008DF80C6002E040208DF80C000DF10C09CD
:104C10004FF480784946284C8DE8820120680123B2
:104C2000427D606801782548FCF754F94FF0FF3A5F
:104C300080BB9DF80C0020F0400020738DF80C60C4
:104C4000680602D404208DF80C00A80605D49DF84F
:104C50000C0040F002008DF80C00E80605D49DF829
:104C60000C0040F001008DF80C00280705D49DF8D9
:104C70000C0040F038008DF80C00CDF80090CDE924
:104C8000017820680123827D606801780B48FCF779
:104C900021F920B1A672504604B0BDE8F08725B1D5
:104CA000082D02D00020FFF7D7FEA572267532200E
:104CB000FBF73EFE0020EFE71C000020480000202C
:104CC0002DE9FF4115000E464FF0FF3729D0174C54
:104CD000A17A31B3010A8DF80C10C0B28DF80D0025
:104CE00081196068428991421BD8022203ABCDE949
:104CF00000324FF48078CDF8088021680123CA7E05
:104D000001780B48FCF7E6F858B98DE86001206897
:104D10000123027E606801780548FCF7DBF8002873
:104D200000D0384604B0BDE8F08100001C0000202F
:104D30004800002000B589B002A905A8FFF7B2FC21
:104D4000032803D04FF0FF3009B000BD6846FFF7DD
:104D5000AFF99DED050A05A8F8EEC00A9DED000A21
:104D600060EE800AFDEEE00ACDED050ADDED060AF3
:104D7000F8EEE00A60EE800AFDEEE00ACDED060AEC
:104D8000DDED070AF8EEE00A20EE800ABDEEC00A6B
:104D90008DED070AFEF7C8FB01A8FFF74DF9BDF836
:104DA00004000299414302910399414303910499FC
:104DB000414302A80491FEF719FB0020C4E700005C
:104DC0002DE9FF411B4C0346214694F824C00026E0
:104DD000D1E90001751E01224FF48077BCF1000F6C
:104DE0000FD0BBB102238DF80C3003ABCDE90032FC
:104DF0000297427C097801230F48FCF76BF878B9D9
:104E000012E094F80AC0BCF1000F09D013B1637C22
:104E10006BB902E08DF80C60E7E78DF80C20E4E751
:104E2000284604B0BDE8F0819DF80C0060740020B5
:104E3000F7E700001C0000204800002000B52DED21
:104E4000048B83B041EC190B00F078FB41EC180B9C
:104E500018EE100A18EE901A8DED008B002818BF7E
:104E60000120084320F00040C0F17F6000F1E040E5
:104E7000C00F14D019EE101A19EE900A8DED009B98
:104E8000002918BF0121084320F00040C0F17F60D5
:104E900000F1E040C00F04BF0120FBF701FB51EC23
:104EA000180B03B0BDEC048B00BD81F000417047CE
:104EB00080F00040704721F00041704720F0004032
:104EC0007047000021F00042A2F16052B2F5801F4D
:104ED00001F0004328BFD2F17F6C0BD95FEA001CC0
:104EE00043EAC20242EB507018BF704728BF20F05F
:104EF00001007047B2F5801FBCBF184670474FEAEB
:104F0000410C1CF5001F02D2084600F043BD70B5ED
:104F100000F0B4FA00000089FFF7F6BF4FF0004040
:104F2000A0F580007047000010B591EA030F48BF5C
:104F300083F0004300F1D683841A71EB030C05D291
:104F4000121943EB0C03001B61EB0C01DFF824E1A9
:104F50004FEA1154A4EB135C1EEA430F18BF9EEAFC
:104F6000445F73D023EA0E03DCF1200E21EA0451E2
:104F700043F4801332D322FA0CFE10EB0E0023FA16
:104F80000CFE41EB0E01CCF1200E03FA0EFE10EBED
:104F90000E0051F10001B1F5801FCCF1200E32D28C
:104FA00001EB045112FA0EF2BDE8104058BF7047F1
:104FB000401C38BF5FEA420218BF7047002814BF88
:104FC00020F0010041F100014FEA410313F5001FF9
:104FD00038BF7047A1F1C04100F09EBA012A43EBEF
:104FE0000302ACF1200CDCF11F0E32BF4FF0000EBB
:104FF00023FA0CF310EB030041EB0451B4EB115F07
:10500000D0D0A1EB045101F5801149085FEA3000CE
:1050100001EB04510ED350F1000038BF12FA0EFE1E
:1050200008D1BDE81040C9E7401C38BF5FEA420222
:10503000CAD1C3E7BDE810404FEA410313F5001F92
:1050400038BF7047A1F1C04100F066BA9EEA445FE4
:1050500008D011EA5E0FBDE8104004BF01F0004126
:1050600000207047BDE8104070B500F007FA00BF9F
:1050700064FBBE3E0000E0FF2DE9C04130B4DFF824
:10508000A0C23CEA111418BF3CEA131400F0EC80F3
:1050900081EA03051CEA111444EAD57418BF1CEA1E
:1050A000131500F0C780A4EB05044FF0004545EA56
:1050B000C12145EAC32341EA505143EA525304F166
:1050C0007F74994204F500344FEAC0204FEAC222AF
:1050D00008BF904200F09C804FEA13650FF2401623
:1050E000765D4FEA134506FB05F7C7F1807706FBAF
:1050F00007F74FEAD737A7FB03687642C8F5803831
:10510000A7FB06CE38BFA8F1010807FB08E64FF061
:10511000000EA6FB028CE6FB03CEDCF1000CCEF108
:10512000004E38BFAEF1010EA6FB0C584FF0000741
:105130004FF00005E6FB0E87A1FB08C6A0FB07CEDB
:1051400016EB0E0645F10005E1FB076515F1E04E93
:105150007EBFA4F580345FEA46066D4116F18007F4
:1051600045F100054FEA17274FEA066647EA05674B
:10517000A6F1DE46B6F1805F4FEA15251FD9384605
:1051800024F0010C05EBC471BCF1FE6F01EB0C11B6
:1051900002D8F0BCBDE8008124425CBF01F5801E4E
:1051A0009EEAC47F02D4F0BCBDE80081244238D41A
:1051B000F0BCA1F1C041BDE8004100F0ADB94FEA3B
:1051C000D22242EA43524FEAD323A7FB02864FEA98
:1051D000D02040EA415007FB03661EEA0E0F4FEA5B
:1051E000D12105FB026658BFA6EB0056B6EB005670
:1051F0004FEA520E4EEAC37E18EB0E0E56EB530EDC
:10520000BDD518EB02085E417F1C55F10005B6E7DD
:105210004FF480154FF000074FF000064FF00008E4
:10522000ADE7F0BC4FF0000001F1C04101F00041DA
:10523000BDE8008111EA0C1F0CEA131500D00CE048
:1052400013EA0C1F00F025804FF00000F0BC81EA4B
:10525000030101F00041BDE80081F0BCBDE8004160
:1052600081EA030100F058B9F0BCBDE8004170B517
:1052700000F004F9097EFC3E00F007B881EA030162
:105280004FF0000001F00041704781EA030100F097
:1052900043B9F0BCBDE800414FF000002149704720
:1052A000FFFDFBF9F7F5F4F2F0EEEDEBE9E8E6E4EB
:1052B000E3E1E0DEDDDBDAD8D7D5D4D3D1D0CFCD72
:1052C000CCCBCAC8C7C6C5C4C2C1C0BFBEBDBCBBAB
:1052D000BAB9B8B7B6B5B4B3B2B1B0AFAEADACABA6
:1052E000AAA9A8A8A7A6A5A4A3A3A2A1A09F9F9E80
:1052F0009D9C9C9B9A999998979796959594939332
:10530000929191908F8F8E8E8D8C8C8B8B8A8989C8
:10531000888887878685858484838382828181804B
:105320000000FF070000F87FDFF848C170B51CEAF5
:10533000111E1EBF1CEA13159EEA0C0F95EA0C0FF6
:1053400000F06F8081EA030423EA4C134EEAD47E16
:1053500021EA4C1141F4801143F48013AE44A1FBC7
:10536000024CA0FB0365AEF17F7E361955EB0C05B0
:10537000A1FB034C4CF10003A0FB021C16EB0C0636
:10538000654153F10003094218BF46F0010613F4CA
:10539000007F0BD14FEA03314FEA0530340341EA75
:1053A000155140EA16506FF003020AE04FEAC3219C
:1053B0004FEAC520F40241EA555140EA56506FF0D9
:1053C000020202EB2E4201EB025585EACE710AD0B1
:1053D0005FEA440C18BF24F0004450F1000041F192
:1053E000000120EAD47040F2FE7C624500D270BD1C
:1053F000A84214BF4FF080444FF04044002E08BF35
:105400000024BEF1806FA8BFA1F1C041BDE870408B
:1054100080F282804FF0000001F1C04101F00041B4
:1054200070479EEA0C0F0CEA131518BF95EA0C0F93
:1054300006D04FF0000081EA030E0EF0004170BD6F
:1054400000F01CF88900013E00F007B800F009B830
:105450004FEA430C5FEA5C5C08D081EA030100F08C
:105460005BB84FEA410C5FEA5C5CF6D14FF000009C
:10547000014970470000FF070000F87F0EF1020E9F
:105480002EF0030E5EF8046B364205D4012A43EB7E
:10549000030515F5001F12D8012841EB010C1CF57E
:1054A000001F0CD80ED14FEAD17C15F5001F0CEB74
:1054B0004C0C0CF1020C08BF4CEBD37C04E04FF019
:1054C000080C01E04FEAD37C0CEB4C0526FA05F6FC
:1054D00006F00706B6F1040C06D20EEB860CBDE80A
:1054E00070404CF0010C6047DFE80CF0090B020241
:1054F0004FF000414FF00000A1F5002170BD1946AA
:105500001046012851EB010418BFD4F5001484BFE4
:10551000002001F0004170BD0808A0F500114FEA1D
:105520003101704791EA030F10B581F000413FF55A
:1055300003AD83F0004300F0D5B800002DE9F04141
:1055400001F5801CBCF5001FC0F2A9804FEA115C78
:1055500021EA0C510CF1FD0C41F480115FEA5C0C66
:105560000CF5C07C01D34000494130A4890241EAD6
:10557000905187028E0E0A0CA45D04FB04F602FB18
:1055800006F6C6F14046A4FB0662F60D46EA422640
:1055900006FB06F4A4FB01235242C3F1404338BF8B
:1055A0005B1EA6FB02420024E6FB0324D20B42EA68
:1055B0004446A6FB0623A1FB02E2A3FB07E4E3FBB0
:1055C00061426442C2F1404E38BFAEF1010EA6FB0B
:1055D00004234FF00002E6FB0E32A2FB0346340028
:1055E000E2FB6264A1FB06E6A4FB07E8E4FB61685A
:1055F0007642C8F1405838BFA8F10108A2FB06E482
:10560000A3FB08E5E2FB6854A1FB05E6A7FB04E861
:10561000E1FB648618F1200556F10006A809A8F1FF
:105620001B08B10908F03F08B8F10A0F40EA86608C
:105630001CD901EB0C51BDE8F08100BFFCF5EEE890
:10564000E2DDD8D3CFCBC7C3C0BDB9B6B4B1AEAC21
:10565000A9A7A5A3A19F9D9B9A9896959392908F99
:105660008D8C8B898887868584838281A0FB0068E6
:1056700000FB01F208EB4208B8EB872807D5341885
:1056800058EB0104D5D5401C51F10001D1E7341A83
:1056900078EB0104CDD4401E71F10001C9E75FEA47
:1056A0004C0C5FEA9C5C0DD105D34FF0000001F07B
:1056B0000041BDE8F081BDE8F04170B5FFF7DEFEC6
:1056C0006DDBFFBEBDE8F0414FF0000000497047C0
:1056D0000000F87F10B591EA030F48BF83F0004344
:1056E0003FF52AAC841A71EB030C07D212198CF027
:1056F000004C43EB0C03001B61EB0C01DFF8A4E151
:105700004FEA1154A4EB135C1EEA430F18BF9EEA44
:10571000445F00F0B08023EA6E03524221EA045154
:10572000C3EB6E0338BF5B1EDCF1200E25D322FADB
:105730000CFE10EB0E0043FA0CFE41EB0E01CCF117
:10574000200E03FA0EFE10EB0E0051F10001CCF119
:10575000200E29D412FA0EF201EB0451BDE81040DC
:1057600058BF7047401C1CBFB2F1004F7047002863
:105770000CBF491C20F00100704712EB020E43EBF6
:10578000030218BF4FF0010E4EEA4202ACF1200CAA
:10579000DCF11E0E54D943FA0CFE10EB0E0051F151
:1057A000FF31CCF11E0ED5D50EF1010E12FA0EFE10
:1057B000404141EB010101EB445C5FEA5C5C10D9C4
:1057C00010EBDE7001EB045138BFBEF1004FBDE8B5
:1057D000104018BF704700280CBF491C20F0010082
:1057E000704730D24FEAD42C11F5001124F4006434
:1057F0001BD0B1FA81F20B3AA41AA41ED2F12003F5
:10580000914030FA03F31943904001EBCC71002C26
:1058100001EB0451BDE81040A8BF704701F1C04141
:105820004FF0000001F000417047B0FA80F310FA29
:1058300003F100D110BDE41A173C4805C90AE4E79A
:1058400001EB045110BD491001EB0451BDE81040BB
:105850004FEA300002E04FF0000170474A0008BFF5
:105860000042F8D0B2F5001F28BF704701F0004198
:105870004FF0000070479EEA445F07D011EA5E0FC8
:10588000BDE8104004BF002100207047BDE8104073
:1058900070B5FFF7F3FD00BF40DFF63E83F0004137
:1058A000104670470000E0FF43004FEAD30C4FEA78
:1058B0003C0C43401FBF40070CF1605113F0FE4FFA
:1058C00070471CF0006F03D100200CF000417047BE
:1058D0000CF0004343EA507010B540EACC0000F0F1
:1058E0000EF800BF000000924FEA0001FFF714BE5F
:1058F0004FF000414FF00000A1F5002170470EF17C
:10590000020E2EF0030E5EF8044B244204D44FEA3C
:105910004102B2F17F4F11D84FEA4003B3F17F4FFC
:105920000CD80ED14FEAD07CB2F17F4F0CEB4C0C6F
:105930000CF1020C08BF4CEBD17C04E04FF0080CDA
:1059400001E04FEAD17C0CEB4C0324FA03F404F0A1
:105950000704B4F1040C06D20EEB840CBDE8104031
:105960004CF0010C6047DFE80CF0070802024FF032
:105970000040A0F5800010BD0846420018BFD2F1DB
:10598000807288BF00F0004010BD4FF04070E1EE23
:10599000100A7047FF2141EAD050C0057047000649
:1059A00010160006101600000000000000000102A2
:1059B000030406070809000000000102030475192A
:1059C0001A0C6A231B1C00001F207274433B4138D1
:1059D000393A006B6C376F06246D6E70D00000048E
:1059E00076005401F7FD000183000000000800006C
:1059F0000001001832000500000020410000D242E2
:105A0000295C0F3E9A99993E3333733F295C0F3ED0
:105A100000007000000000240000000200030000ED
:105A200000650054FFEF0000FA80000B12820001B5
:105A3000030C30C30E8C8CE914D5400213710F8E09
:105A40003883F8833000F883258EF8833000F8839C
:105A5000FFFFFFFF0FFEA9D6240004001A8279A1E0
:105A60000000003CFFFF00000010000038836FA220
:105A7000003E03304000000002CAE3093E800000FF
:105A80002000000000000000400000006000000056
:105A9000000C0000000C186E000006920A16C0DF11
:105AA000FFFF0256FD8CD377FFE1C496E0C5BEAA86
:105AB00000000000FFFF0B2B0000165700000359E9
:105AC0004000000000001DFA00026C1D00000000F4
:105AD0003FFFDFEB003EB3B6000D227800002F3C05
